:1000000002157D75C870E4F5CDF5CC75CBBC75CA0D
:10001000CD43A820D2C8D2AF221216CC12000322A0
:0300230002002EAA
:10002B000214F1C0E0C0F0C083C082C0D075D00014
:10003B00C000C004C006C007309878C298908000FA
:10004B00E599F09082B8E0FEA3E0EE20E7659082A0
:10005B00B8E0FEA3E0C39464EE9400501F908000C0
:10006B00E0FF9082B8E475F001120776FC74482526
:10007B00F0F58274823CF583EFF080099082B8E44E
:10008B00F0A3F0802E908247E0C394085003E00465
:10009B00F0908247E0B4081B9082B8E0FEA3E0FF2B
:1000AB00EE44809082B8F0A3EFF09082467401F09A
:1000BB00A3E4F0D007D006D004D000D0D0D082D0AB
:1000CB0083D0F0D0E032908214EEF0A3EFF0908268
:1000DB0014E0FEA3E0FF780DA60608A607780DE650
:0700EB00FE08E64E70F7224B
:1000F800FFFF4457494E54350215C4020257EC5DC0
:10010800046005E85904700302024D1202185804ED
:1001180060F6EC4860F2EC7004FDFEFF22C860DB7C
:100128002481C85009C398600250060202549850AE
:10013800CAF582E9294B4A7005AB8202024375F081
:10014800007C1A7880C3EF9BEE9AED99400DC3EFBF
:100158009BFFEE9AFEED99FDE842F0DC23ACF0D06F
:10016800E0FFD0E0FED0E0FDAB8220E7101BEB60A3
:10017800BAEC2CFCEF33FFEE33FEED33FD02022F19
:10018800E803F830E705C0F075F000EF2FFFEE3315
:10019800FEED33FD40B830E7C280AA75F020800E2E
:1001A80075F010800575F0087D007E007F003392A1
:1001B800D530D5031207FCEC334010EF33FFEE3394
:1001C800FEED33FDEC33FCD5F0ED22E5F0247EA204
:1001D800D513CC92E7CDCEFF22EDD2E7CD33EC3369
:1001E80092D524814006E4FFFEFDFC22FCE4CFCE3C
:1001F800CDCC24E0501174FF80EDC3CC13CCCD13CB
:10020800CDCE13CECF13CF0470F030D5DE0207FC6D
:10021800E9D2E7C933E833F892D5EDD2E7CD33EC2C
:1002280033FC5002B2D522EC30E7100FBF000C0EA1
:10023800BE00080DBD00040BEB6014A2D5EB13FC47
:10024800ED92E7FD2274FFFCFDFEFF22E480F8A298
:10025800D574FF13FC7D80E480EFF920E73624F99C
:1002680050037907E4F42402FBE582158270021535
:1002780083DBF6E024FB501BE96014E4F0E582150B
:100288008270021583E004F0B40A08E4F0D9EE7431
:1002980001F00A22C2D522ED33EC3392D5FA602A56
:1002A800B4FF33EDC2E77BFF60067A0279C4E4222B
:1002B8007A0279CD20D5047A0279C8224E614E009F
:1002C8002B494E46002D494E4600E47A08F0A3DA41
:1002D800FC7B00740722C083C082ECC0E0EDC0E064
:1002E800EEC0E0EFC0E0EA75F010A4CAABF075F01C
:1002F8004DA42BFBE435F0FCEA2410FAEB34C5FBE3
:10030800EC34D9FCEDC2E7FF75F056A4F42411C50E
:10031800F0F434C58FF0A42AE5F03BE43CF020E784
:10032800141205D2D0E0FFD0E0FED0E0FDD0E0FC12
:100338001201068014F4041205D2D0E0FFD0E0FECA
:10034800D0E0FDD0E0FC12049CD082D083E0FAED2E
:10035800D2E7CD33EC332482FBE4C3CF33CFCE33A3
:10036800CECD33CD33DBF37B0775F00A846004F020
:10037800A31B0AE5F0F0A38FF0740AA4FFACF08E7B
:10038800F0740AA42CFEACF050010C8DF0740AA491
:100398002CFDE435F0F0A3DBDE74072202024DE801
:1003A8006480F8E933E83360110460F0ED33EC332E
:1003B8007009E8FCE9FDEAFEEBFF220460DED3EBFE
:1003C8009FEA9EE99DE8C2E78CF0C2F795F0400CE1
:1003D800E8CCF8E9CDF9EACEFAEBCFFB12021885A2
:1003E800D0F05804700320D5B3E80470075002B267
:1003F800D502025792D5EC0460F7E4CCC0E0C3986C
:10040800F8603B94186008400DD0E0FB02022FE42E
:10041800FBFAC9FC8028E830E406E4C9FBE4CAFC1E
:10042800E830E305E4C9CACBFCE854076010F8C318
:10043800E913F9EA13FAEB13FBEC13FCD8F130F5E6
:100448002FC3E49CFCEF9BFFEE9AFEED99FDD0E0F4
:10045800FBEF4E4D4C701222DB03020254EC2CFCD5
:10046800EF33FFEE33FEED33FDED30E7EB02022F05
:10047800EF2BFFEE3AFEED39FDD0E0FB50130BBB3E
:100488000003020257ED13FDEE13FEEF13FFEC130A
:10049800FC02022FEC4D6011E8497017ED33EC3384
:1004A80004600DE4FCFFFEFD22E933E8330470F834
:1004B80002024D12021858046009E4CC2481500647
:1004C800285009020257284003020254C0E0EB4AB0
:1004D8007044B98006D0E0FB020243EF4E701CBDA9
:1004E8008008EBFFEAFEE9FD80EBE98DF0A4FEE56C
:1004F800F0020585E9CDF9EAFEEBFFEF89F0A4FCEF
:10050800E5F0CE89F0A42EFFE435F0CD89F0A42DD6
:10051800FEE435F08067EF4E7005BD80D780C3EFED
:100528008BF0A4ACF0EE8BF0A42CFCE435F0F8EFE3
:100538008AF0A42CE5F038FCE433CB8DF0A42CFC35
:10054800E5F03BF8EE8AF0A42CFCE5F038F8E4334B
:10055800CF89F0A42CFCE5F038CF3400CE89F0A484
:100568002FFFE5F03EFEE433C98DF0A42EFEE5F042
:1005780039CD8AF0A42FFFE5F03EFEE43DFD33D0EF
:10058800E0FB50070BBB000F020257EC2CFCEF33CB
:10059800FFEE33FEED33FD02022F3F8000004120C5
:1005A800000042C80000447A0000461C400047C3CF
:1005B8005000497424004B1896804CBEBC205A0E3B
:1005C8001BCA6753C21C749DC5AEFB600654076006
:1005D8001C2323120600EB543860091205EC12059F
:1005E800FB12049CECF8EDF9EEFAEFCB22EB1205C6
:1005F800FB80F1543803241C9005A2FE93FC0EEEF8
:1006080093FD0EEE930ECE93FF22E709F608DFFA6C
:100618008046E709F208DFFA803E88828C83E70982
:10062800F0A3DFFA8032E309F608DFFA8078E309FD
:10063800F208DFFA807088828C83E309F0A3DFFA7E
:10064800806489828A83E0A3F608DFFA8058898269
:100658008A83E0A3F208DFFA804C80D280FA80C651
:1006680080D4806980F28033801080A680EA809AE6
:1006780080A880DA80E280CA803389828A83ECFA93
:10068800E493A3C8C582C8CCC583CCF0A3C8C582EF
:10069800C8CCC583CCDFE9DEE7800D89828A83E494
:1006A80093A3F608DFF9ECFAA9F0EDFB2289828A18
:1006B80083ECFAE0A3C8C582C8CCC583CCF0A3C834
:1006C800C582C8CCC583CCDFEADEE880DB89828AB4
:1006D80083E493A3F208DFF980CC88F0EF60010E81
:1006E8004E60C388F0ED2402B4040050B9F582EBE3
:1006F8002402B4040050AF2323458223900662737A
:10070800BB010689828A83E0225002E722BBFE02EF
:10071800E32289828A83E49322BB010CE58229F5CE
:1007280082E5833AF583E0225006E92582F8E6223D
:10073800BBFE06E92582F8E222E58229F582E583F7
:100748003AF583E49322BB010689828A83F022501A
:1007580002F722BBFE01F322C5F0F8A3E028F0C59A
:10076800F0F8E582158270021583E038F022A3F8CC
:10077800E0C5F025F0F0E582158270021583E0C827
:1007880038F0E822BB010A89828A83E0F5F0A3E009
:1007980022500687F009E71922BBFE07E3F5F009A6
:1007A800E3192289828A83E493F5F074019322BBCA
:1007B8000110E58229F582E5833AF583E0F5F0A397
:1007C800E0225009E92582F886F008E622BBFE0AF5
:1007D800E92582F8E2F5F008E222E5832AF583E9C3
:1007E80093F5F0A3E99322EF2BFFEE3AFEED39FDE6
:1007F800EC38FC22C3E49FFFE49EFEE49DFDE49CEC
:10080800FC22EB9FF5F0EA9E42F0E99D42F0E89C5D
:1008180045F022E8600FECC313FCED13FDEE13FE68
:10082800EF13FFD8F122E0FCA3E0FDA3E0FEA3E074
:10083800FF22E0F8A3E0F9A3E0FAA3E0FB22ECF042
:10084800A3EDF0A3EEF0A3EFF022A8828583F0D009
:1008580083D082120869120869120869120869E4CB
:1008680073E493A3C583C5F0C583C8C582C8F0A344
:10087800C583C5F0C583C8C582C822E0FBA3E0FADA
:10088800A3E0F922F8E0FBA3A3E0F925F0F0E58264
:10089800158270021583E0FA38F022EBF0A3EAF033
:1008A800A3E9F022D083D082F8E493701274019304
:1008B800700DA3A393F8740193F5828883E473748D
:1008C80002936860EFA3A3A380DFE5082417F582ED
:1008D800E43482F583E005082290821430070390FF
:1008E8008217E475F00112088C0207082000E97FDE
:1008F8002ED2008018EF540F2490D43440D4FF3007
:10090800040BEF24BFB41A0050032461FFE509600B
:10091800021509050CE50C7002050B30070E9082D4
:1009280014E475F00112088CEF02074E02173974AF
:1009380003D2078003E4C207F5089082141208A3C3
:10094800E4F509F50BF50CE50960077F2012091598
:1009580080F5750AFFC201C200C202C203C205C205
:1009680006C2081208E1FF700D3007057F00120962
:1009780026AF0CAE0B22B4255FC2D5C2041208E123
:10098800FF24D0B40A00501A75F00A780930D5054A
:1009980008B6FF0106C6A426F620D5047002D203C5
:1009A80080D924CFB41A00EF5004C2E5D204020C57
:1009B80018D20180C6D20080C0D20280BCD2D580B5
:1009C800BAD20580B47F201209152002077401B538
:1009D800090040F11208D2FF12091502094FD20886
:1009E800D20680951208D2FB1208D2FA1208D2F960
:1009F8004A4B700679167A0D7BFF20022EE50960B6
:100A08002A7E008E8275830012072160060EEE652D
:100A18000A70F0C2D5EBC0E0EAC0E0E9C0E0EE122F
:100A28000C79D0E0F9D0E0FAD0E0FB120708FF60BB
:100A3800AAEBC0E0EAC0E0E9C0E0120915D0E02462
:100A480001F9D0E03400FAD0E0FBE50A0460DCD517
:100A58000AD98087D20280A2120C5B60F7E50A707F
:100A68000104120262A90A600DE50A600914F50A78
:100A7800120D03EF60F3EA30E702F404C3995079EA
:100A8800EAF4250A0430E701E404F50A800D120CA3
:100A98005B60C1EA050A250A120262EA908243F005
:100AA80030E701E4250A04D50A0420050114120CD4
:100AB80079E4C0E0120D03908243E0601320E70759
:100AC80014F01208FD802204F0D0E014C0E07F008A
:100AD8001208FDE50A60071208F4150A800B3005B4
:100AE800031208F4D0E002094FD0E00480C4120CCD
:100AF8005B609EE50A04120262908243EAF0E50A0E
:100B08002005026001042404120C7974FF04C0E07B
:100B1800120D031208FDE50A20050260031208F40D
:100B2800D0E0B50AE87F45120907908243E07F2BA1
:100B380030E7047F2DF404C0E0120915D0E075F009
:100B48000A84C0F01208FED0E01208FE02094F79AC
:100B58001080027908C206C2088008D2D5790A80B6
:100B680004790AC2D5E50A047002F50AE4FAFDFE22
:100B7800FF1208D2FC7B082001131208D2FD7B105B
:100B880030000A1208D2FE1208D2FF7B20EC338212
:100B9800D592D55013C3E43000069FFFE49EFEE4CF
:100BA8002001039DFDE49CFCE4CBF8C201EC700C31
:100BB800CFCECDCCE824F8F870F38017C3EF33FF1D
:100BC800EE33FEED33FDEC33FCEB33FB994002FBD7
:100BD8000FD8E9EB300105F8D0E0C448B201C0E015
:100BE8000AEC4D4E4F78207B0070C2EAB50A0040EF
:100BF800BCC0E0120C7BD0F0D0E0200104C4C0E0FF
:100C0800C4B201C0F01208FED0F0D5F0EB02094FD3
:100C18001208AC09EC530B575809BD4C09B9420BE3
:100C28005B4F0B63440B634909D2430B69550A9622
:100C3800460AF6450A60470D365009C12D09C52EEA
:100C480009E82B09C92309E6200D1F2A0981480054
:100C58000009E0E50AB4FF03750A061208D2FC127F
:100C680008D2FD1208D2FE1208D2FF90823C02027E
:100C78009F790AA2D5200314300509B9100204048B
:100C8800B9080104A2D52006025001042002689286
:100C980002B509005034C0E07F203003197F30A22C
:100CA8000272067205500F120CD2C202C206C205A9
:100CB800C2087F30800F300503E9C0E01209153003
:100CC8000503D0E0F9D0E0B509CC3005177F30B97D
:100CD800100C1209157F583004077F788003B90873
:100CE800031209153002057F2D0209157F202008FF
:100CF800F87F2B2006F322920280CF7F00B40700F2
:100D0800500B243CF582E43482F583E0FF22286E00
:100D1800756C6C2900D2011208D23001F8C2017832
:100D28000930D50108F60209812D504349581208A7
:100D3800D22403B405004001E4900D319312090652
:100D4800743A120906D203750904020B5744475531
:100D58005320546F6F6C000000444755532054458E
:100D68005354205445585400000025303258200070
:100D780052656365697665640A0054696D656F75C7
:100D8800740A0000010003000100040002000400CE
:100D98000500020003001000100006000400020015
:100DA80020000800050016003000100006000500AD
:100DB80040001200000000000000000000000000D9
:100DC800000000000000000000000000000000001B
:100DD800000000000000000000000000000000000B
:100DE80000000000000000000000000000000000FB
:100DF80000000000000000000000000000000000EB
:100E080000000000000000000000000000000000DA
:100E180000000000000000000000000000000000CA
:100E280000000000000000000000000000000000BA
:100E380000000000000000000000000000000000AA
:100E4800000000000000000000000000000000009A
:100E5800000000000000000000000000000000008A
:100E6800000000000000000000000000000000007A
:100E7800000000000000000000000000000000006A
:100E8800000000000000000000000000000000005A
:100E9800000000000000000000000000000000004A
:100EA800000000000000000000000000000000003A
:100EB800000000000000000000000000000000002A
:100EC800000000000000000000000000000000001A
:100ED800000000000000000000000000000000000A
:100EE80000000000000000000000000000000000FA
:100EF80000000000000000000000000000000000EA
:100F080000000000000000000000000000000000D9
:100F180000000000000000000000000000000000C9
:100F280000000000000000000000000000000000B9
:100F380000000000000000000000000000000000A9
:100F48000000000000000000000000000000000099
:100F58000000000000000000000000000000000089
:100F68000000000000000000000000000000000079
:100F78000000000000000000000000000000000069
:100F88000000000000000000000000000000000059
:100F98000000000000000000000000000000000049
:100FA8000000000000000000000000000000000039
:100FB80000000000000000000000007BFF7A0D79AF
:100FC8008B78227C007D007E007F301206E27BFF5A
:100FD8007A0D79BB78017C807D017E007F0812063E
:100FE800E2908009120852000000007BFF7A0D7918
:100FF800C378127C807D017E027F001206E2120017
:10100800197BFF7A0D7955908219E4F0A37407F0E3
:101018007F027E201212307FE87E031200D17BFF10
:101028007A0D7961908219E4F0A37409F07F347E17
:10103800201212307F807E257D007C001216097BED
:10104800007A007922121453E49082B6F0A3F0904B
:10105800800DF09082B8E0FEA3E0EE20E7030211D5
:10106800219082B8A3E0FFEE547F90800EF0A3EFAA
:10107800F0E4908212F0A3F0908010F0A3F090803A
:101088000EE0FEA3E0FFA3E0FCA3E0C39FEC9E50AC
:101098005A908212E0FEA3E02412F974803EFA7B93
:1010A80001C003C002C0017BFF7A0D7972908217DC
:1010B8001208A3908010E0FEA3E02448F582748211
:1010C8003EF583E0FF90821AE4F0A3EFF0D001D060
:1010D80002D003120937908212EE8FF01207609047
:1010E8008010E475F00112076080937B017A8079A3
:1010F80012908212E0FEA3E0FFEEC313FEEF13246A
:1011080001FFE43E908219F0A3EFF07F027E2012E7
:101118001230E49082B8F0A3F090800DE0707B90DC
:1011280082B6E0FEA3E0C39406EE94004007E49084
:1011380082B6F0A3F09082B6E0A3E075F008A4248C
:1011480022F9E4FAFB78527C00FDFE7F081206E2E1
:101158007B007A0079521214537B017A8279B69017
:101168008219E4F0A304F07F007E20121230785434
:10117800E608E6785AF67B007A007954908219E4FA
:10118800F0A304F0FF7E2012123090800D7401F05D
:101198009080091208520007A12090800912082E99
:1011A80074FFFBFAF9F81207EF90800912084690CD
:1011B800800DE06401600302105B908246E0B40198
:1011C800277A0D7978908219E4F0A37405F07F34BA
:1011D8007E201212309082B6E475F001120760E4A6
:1011E80090800DF0908246F0E4FFFEFDFC908009AF
:1011F80012083AC312080A600302105B7BFF7A0DDB
:101208007982908219F0A37404F07F347E20121240
:10121800309082B6E475F001120760E490800DF01A
:10122800908246F002105B22908214EEF0A3EFF059
:10123800A31208A3908214E0A3E0540190821BF04B
:10124800908214E0FEA3E0FFEEC313FEEF13FF90BD
:101258008214EEF0A3EFF0E4F5F1908214E0FEA31F
:10126800E0EEF5F2908214E0A3E0F5F375F4017571
:10127800F88F30FCFD90821BE0603C908219E0FE04
:10128800A3E0D39400EE9400402D75F88390821665
:10129800E475F00112088C120708F5FC908216E438
:1012A80075F00112088C120708F5FDD2FE9082191C
:1012B80074FFF5F012076075F88F908219E0FEA3AD
:1012C800E0C39402EE9400404B908216E475F0015E
:1012D80012088C120708F5FA908216E475F00112CC
:1012E800088C120708F5FB908216E475F0011208C5
:1012F8008C120708F5FC908216E475F00112088C30
:10130800120708F5FDD2FE90821974FF75F0FE12DF
:10131800076080A6908219E0FEA3E04E602375F86E
:101328008C908216E475F00112088C120708F5FA01
:10133800908216E475F00112088C120708F5FBD2AA
:10134800FEE4F5F8229082211208A3908224EDF0A1
:1013580074FFA3F0A3F0E490822BF0A3F090822412
:10136800E0FF90822BE0FCA3E0C39FEC94004003D5
:1013780002141290822112088390822BE0FEA3E0CF
:10138800F5828E83120721FF908225E0FCA3E0FD01
:10139800ECFEEF6DFF908225EEF0A3EFF0E4908273
:1013A8002DF090822DE0C394085052908225E0A33E
:1013B800E05401FF908229E4F0A3EFF0908225E049
:1013C800FEA3E0FFEEC313FEEF13FF908225EEF0BD
:1013D800A3EFF0908229E0FEA3E04E6018908225EA
:1013E800E0FEA3E0FFEE64A0FEEF6401FF9082251B
:1013F800EEF0A3EFF090822DE004F080A590822B10
:10140800E475F001120760021365908225E0FEA3DF
:10141800E0EEFFA3E4F0A3EFF0908225A3E0FEA3A3
:10142800E0FCA3E0FDEE4CFEEDFF908225EEF0A37C
:10143800EFF0908225E0FEA3E0FF908225EEF0A376
:10144800EFF0908225E0FEA3E0FF229082141208BC
:10145800A390821412088312078C908217F090824E
:10146800141208839000021207B7908218F0908235
:10147800141208839000041207B7E5F0908219F05F
:101488009082141208839000041207B790821AF011
:101498009082141208839000061207B7E5F0908234
:1014A8001BF09082141208839000061207B79082EE
:1014B8001CF07B017A8279177D0612134D90821FEA
:1014C800EEF0A3EFF090821FE0A3E090821DF09071
:1014D800821FE0FEA3E0EE90821EF07B017A827903
:1014E800177D087C0012167A22C0E0C0F0C083C0C5
:1014F80082C0D075D000C000C001C002C003C004C3
:10150800C005C006C007C2C674FFFFFEFDFC90827E
:10151800BC12083AC312080A50159082BC12082E51
:10152800E47B01FAF9F81207EF9082BC12084674BE
:10153800FFFFFEFDFC9082BC12083AC312080A7035
:101548000A9082BC12085200000000780DE6FE08DE
:10155800E64E6006E61618700116D007D006D005CC
:10156800D004D003D002D001D000D0D0D082D08314
:10157800D0F0D0E032787FE4F6D8FD75815A0215B4
:10158800C4020FC3E493A3F8E493A34003F68001D5
:10159800F208DFF48029E493A3F85407240CC8C3A5
:1015A80033C4540F4420C8834004F456800146F6DF
:1015B800DFE4800B01020408102040809016FCE450
:1015C8007E019360BCA3FF543F30E509541FFEE43D
:1015D80093A360010ECF54C025E060A840B8E493FF
:1015E800A3FAE493A3F8E493A3C8C582C8CAC58341
:1015F800CAF0A3C8C582C8CAC583CADFE9DEE780C6
:10160800BE90821412084643C94053B7CF43B7105F
:1016180075D88075985053877F90821412082EE4ED
:101628001201A3A804A905AA06AB077F007EE07DE6
:10163800447C4A1201061201E1C3E49FFF74049E30
:10164800FEE4FCFD90821412084690821412082EC3
:10165800780812081BEFE48FBA90821412082EEF54
:10166800E48FAAD2ACD2AF9082B8F0A3F0908247B0
:10167800F0229082211208A3908224ECF0A3EDF0CE
:10168800C2ACE4A3F0A3F0908224E0FEA3E0FFA3A1
:10169800E0FCA3E0C39FEC9E5027908221120883B0
:1016A800908226E0FEA3E0F5828E83120721F59949
:1016B8003099FDC299908226E475F0011207608086
:1016C800C6D2AC22C2AFC2D3C2D4E4F58E75C870FC
:1016D800F593759401759502F5C9F5F875F901F555
:1016E800A843B830F59AF5A9F5B953C9FDD2BDD2CA
:1016F800BCD2AF22020D00004482BC0000000045AD
:1017080082AF01020304054282B400014282BA009A
:10171800044182AE004282B6000041824600009039
:101728008245EFF0C2ACE0F5993099FDC299D2AC90
:1017380022908244EFF0E0FF121727908244E0FFE6
:01174800227E
:00000001FF
