:1000000002130075C870E4F5CDF5CC75CBBC75CA8C
:10001000CD43A820D2C8D2AF221215441200032229
:1000230002002E0102030405021274C0E0C0F0C0F6
:1000330083C082C0D075D000C000C004C006C00712
:10004300309874C298908000E599F09082B5E0FEF4
:10005300A3E0EE20E7619082B5E0FEA3E0C39464E1
:10006300EE9400501F908000E0FF9082B5E475F09D
:1000730001120776FC744725F0F58274823CF58300
:10008300EFF080099082B5E4F0A3F0802A908246D5
:10009300E0C394085003E004F0908246E0B40817EC
:1000A3009082B5E0FEA3E0FFEE44809082B5F0A31A
:1000B300EFF0908246E4F0D007D006D004D000D011
:1000C300D0D082D083D0F0D0E032020D0000448241
:1000D300B9000000004582AF01020304054282B764
:1000E30000014282AD00044182B4004182450042D6
:1000F3008243000000FFFF4457494E543502134723
:10010300020257EC5D046005E85904700302024DD6
:10011300120218580460F6EC4860F2EC7004FDFE1D
:10012300FF22C860DB2481C85009C39860025006CF
:100133000202549850CAF582E9294B4A7005AB82F2
:1001430002024375F0007C1A7880C3EF9BEE9AEDB0
:1001530099400DC3EF9BFFEE9AFEED99FDE842F047
:10016300DC23ACF0D0E0FFD0E0FED0E0FDAB82209A
:10017300E7101BEB60BAEC2CFCEF33FFEE33FEED24
:1001830033FD02022FE803F830E705C0F075F000F5
:10019300EF2FFFEE33FEED33FD40B830E7C280AA08
:1001A30075F020800E75F010800575F0087D007ED7
:1001B300007F003392D530D503120799EC334010FA
:1001C300EF33FFEE33FEED33FDEC33FCD5F0ED22E0
:1001D300E5F0247EA2D513CC92E7CDCEFF22EDD25B
:1001E300E7CD33EC3392D524814006E4FFFEFDFCDA
:1001F30022FCE4CFCECDCC24E0501174FF80EDC3BC
:10020300CC13CCCD13CDCE13CECF13CF0470F0309F
:10021300D5DE020799E9D2E7C933E833F892D5ED81
:10022300D2E7CD33EC33FC5002B2D522EC30E710E9
:100233000FBF000C0EBE00080DBD00040BEB6014D5
:10024300A2D5EB13FCED92E7FD2274FFFCFDFEFF4C
:1002530022E480F8A2D574FF13FC7D80E480EFF9DB
:1002630020E73624F950037907E4F42402FBE582FE
:10027300158270021583DBF6E024FB501BE9601442
:10028300E4F0E582158270021583E004F0B40A08F5
:10029300E4F0D9EE7401F00A22C2D522ED33EC3337
:1002A30092D5FA602AB4FF33EDC2E77BFF60067A8A
:1002B3000279C4E4227A0279CD20D5047A0279C87E
:1002C300224E614E002B494E46002D494E4600E416
:1002D3007A08F0A3DAFC7B00740722C083C082ECA7
:1002E300C0E0EDC0E0EEC0E0EFC0E0EA75F010A4BE
:1002F300CAABF075F04DA42BFBE435F0FCEA2410F7
:10030300FAEB34C5FBEC34D9FCEDC2E7FF75F056CC
:10031300A4F42411C5F0F434C58FF0A42AE5F03B0E
:10032300E43CF020E7141205D2D0E0FFD0E0FED089
:10033300E0FDD0E0FC1201068014F4041205D2D0D3
:10034300E0FFD0E0FED0E0FDD0E0FC12049CD082C0
:10035300D083E0FAEDD2E7CD33EC332482FBE4C360
:10036300CF33CFCE33CECD33CD33DBF37B0775F035
:100373000A846004F0A31B0AE5F0F0A38FF0740A6B
:10038300A4FFACF08EF0740AA42CFEACF050010C68
:100393008DF0740AA42CFDE435F0F0A3DBDE7407C2
:1003A3002202024DE86480F8E933E8336011046007
:1003B300F0ED33EC337009E8FCE9FDEAFEEBFF22D4
:1003C3000460DED3EB9FEA9EE99DE8C2E78CF0C2AE
:1003D300F795F0400CE8CCF8E9CDF9EACEFAEBCF8B
:1003E300FB12021885D0F05804700320D5B3E8043B
:1003F30070075002B2D502025792D5EC0460F7E4BD
:10040300CCC0E0C398F8603B94186008400DD0E07E
:10041300FB02022FE4FBFAC9FC8028E830E406E47F
:10042300C9FBE4CAFCE830E305E4C9CACBFCE854E1
:10043300076010F8C3E913F9EA13FAEB13FBEC13A3
:10044300FCD8F130F52FC3E49CFCEF9BFFEE9AFE42
:10045300ED99FDD0E0FBEF4E4D4C701222DB030211
:100463000254EC2CFCEF33FFEE33FEED33FDED30A5
:10047300E7EB02022FEF2BFFEE3AFEED39FDD0E062
:10048300FB50130BBB0003020257ED13FDEE13FEEB
:10049300EF13FFEC13FC02022FEC4D6011E84970DF
:1004A30017ED33EC3304600DE4FCFFFEFD22E9336A
:1004B300E8330470F802024D12021858046009E48C
:1004C300CC24815006285009020257284003020217
:1004D30054C0E0EB4A7044B98006D0E0FB0202430B
:1004E300EF4E701CBD8008EBFFEAFEE9FD80EBE9EF
:1004F3008DF0A4FEE5F0020585E9CDF9EAFEEBFFF8
:10050300EF89F0A4FCE5F0CE89F0A42EFFE435F0EA
:10051300CD89F0A42DFEE435F08067EF4E7005BD64
:1005230080D780C3EF8BF0A4ACF0EE8BF0A42CFC4F
:10053300E435F0F8EF8AF0A42CE5F038FCE433CB93
:100543008DF0A42CFCE5F03BF8EE8AF0A42CFCE53E
:10055300F038F8E433CF89F0A42CFCE5F038CF343D
:1005630000CE89F0A42FFFE5F03EFEE433C98DF001
:10057300A42EFEE5F039CD8AF0A42FFFE5F03EFE70
:10058300E43DFD33D0E0FB50070BBB000F020257E5
:10059300EC2CFCEF33FFEE33FEED33FD02022F3F75
:1005A3008000004120000042C80000447A00004659
:1005B3001C400047C35000497424004B1896804CDC
:1005C300BEBC205A0E1BCA6753C21C749DC5AEFB2A
:1005D30060065407601C2323120600EB543860099D
:1005E3001205EC1205FB12049CECF8EDF9EEFAEFA0
:1005F300CB22EB1205FB80F1543803241C9005A297
:10060300FE93FC0EEE93FD0EEE930ECE93FF22E7C8
:1006130009F608DFFA8046E709F208DFFA803E8828
:10062300828C83E709F0A3DFFA8032E309F608DF5F
:10063300FA8078E309F208DFFA807088828C83E31A
:1006430009F0A3DFFA806489828A83E0A3F608DFD6
:10065300FA805889828A83E0A3F208DFFA804C800B
:10066300D280FA80C680D4806980F2803380108083
:10067300A680EA809A80A880DA80E280CA803389E3
:10068300828A83ECFAE493A3C8C582C8CCC583CC21
:10069300F0A3C8C582C8CCC583CCDFE9DEE7800DF3
:1006A30089828A83E493A3F608DFF9ECFAA9F0EDD3
:1006B300FB2289828A83ECFAE0A3C8C582C8CCC531
:1006C30083CCF0A3C8C582C8CCC583CCDFEADEE8FF
:1006D30080DB89828A83E493A3F208DFF980CC88E4
:1006E300F0EF60010E4E60C388F0ED2402B4040005
:1006F30050B9F582EB2402B4040050AF23234582A2
:100703002390066273BB010689828A83E02250022A
:10071300E722BBFE02E32289828A83E49322BB01A0
:100723000CE58229F582E5833AF583E0225006E958
:100733002582F8E622BBFE06E92582F8E222E5825D
:1007430029F582E5833AF583E49322BB0106898286
:100753008A83F0225002F722BBFE01F322C5F0F890
:10076300A3E028F0C5F0F8E582158270021583E056
:1007730038F022A3F8E0C5F025F0F0E58215827089
:10078300021583E0C838F0E822EF2BFFEE3AFEEDC6
:1007930039FDEC38FC22C3E49FFFE49EFEE49DFD9B
:1007A300E49CFC22EB9FF5F0EA9E42F0E99D42F0C7
:1007B300E89C45F022E8600FECC313FCED13FDEE5B
:1007C30013FEEF13FFD8F122E0FCA3E0FDA3E0FE4C
:1007D300A3E0FF22E0F8A3E0F9A3E0FAA3E0FB2201
:1007E300ECF0A3EDF0A3EEF0A3EFF022A882858353
:1007F300F0D083D0821208061208061208061208E7
:1008030006E473E493A3C583C5F0C583C8C582C852
:10081300F0A3C583C5F0C583C8C582C822E0FBA386
:10082300E0FAA3E0F922F8E0FBA3A3E0F925F0F056
:10083300E582158270021583E0FA38F022EBF0A30B
:10084300EAF0A3E9F022D083D082F8E49370127423
:100853000193700DA3A393F8740193F5828883E445
:10086300737402936860EFA3A3A380DFE5082414E5
:10087300F582E43482F583E0050822908211300783
:1008830003908214E475F00112082902070820007E
:10089300E97F2ED2008018EF540F2490D43440D433
:1008A300FF30040BEF24BFB41A0050032461FFE5AB
:1008B3000960021509050CE50C7002050B30070EE3
:1008C300908211E475F001120829EF02074E021518
:1008D300A77403D2078003E4C207F50890821112BC
:1008E3000840E4F509F50BF50CE50960077F2012D4
:1008F30008B280F5750AFFC201C200C202C203C278
:1009030005C206C20812087EFF700D3007057F007E
:100913001208C3AF0CAE0B22B4255FC2D5C20412BA
:10092300087EFF24D0B40A00501A75F00A78093003
:10093300D50508B6FF0106C6A426F620D504700225
:10094300D20380D924CFB41A00EF5004C2E5D204F5
:10095300020BB5D20180C6D20080C0D20280BCD2C5
:10096300D580BAD20580B47F201208B22002077462
:1009730001B5090040F112086FFF1208B20208EC3A
:10098300D208D206809512086FFB12086FFA12087C
:100993006FF94A4B700679B37A0C7BFF20022EE580
:1009A30009602A7E008E8275830012072160060E7D
:1009B300EE650A70F0C2D5EBC0E0EAC0E0E9C0E042
:1009C300EE120C16D0E0F9D0E0FAD0E0FB120708E3
:1009D300FF60AAEBC0E0EAC0E0E9C0E01208B2D0D1
:1009E300E02401F9D0E03400FAD0E0FBE50A04602A
:1009F300DCD50AD98087D20280A2120BF860F7E512
:100A03000A700104120262A90A600DE50A60091462
:100A1300F50A120CA0EF60F3EA30E702F404C3997D
:100A23005079EAF4250A0430E701E404F50A800D5D
:100A3300120BF860C1EA050A250A120262EA9082E3
:100A430040F030E701E4250A04D50A042005011427
:100A5300120C16E4C0E0120CA0908240E060132058
:100A6300E70714F012089A802204F0D0E014C0E0E3
:100A73007F0012089AE50A6007120891150A800B95
:100A8300300503120891D0E00208ECD0E00480C4E2
:100A9300120BF8609EE50A04120262908240EAF0AB
:100AA300E50A2005026001042404120C1674FF04F5
:100AB300C0E0120CA012089AE50A20050260031296
:100AC3000891D0E0B50AE87F451208A4908240E07F
:100AD3007F2B30E7047F2DF404C0E01208B2D0E08E
:100AE30075F00A84C0F012089BD0E012089B02083C
:100AF300EC791080027908C206C2088008D2D57941
:100B03000A8004790AC2D5E50A047002F50AE4FAF8
:100B1300FDFEFF12086FFC7B0820011312086FFD16
:100B23007B1030000A12086FFE12086FFF7B20EC67
:100B33003382D592D55013C3E43000069FFFE49E61
:100B4300FEE42001039DFDE49CFCE4CBF8C201EC30
:100B5300700CCFCECDCCE824F8F870F38017C3EF38
:100B630033FFEE33FEED33FDEC33FCEB33FB994007
:100B730002FB0FD8E9EB300105F8D0E0C448B2011D
:100B8300C0E00AEC4D4E4F78207B0070C2EAB50AF4
:100B93000040BCC0E0120C18D0F0D0E0200104C427
:100BA300C0E0C4B201C0F012089BD0F0D5F0EB0254
:100BB30008EC1208490989530AF458095A4C095692
:100BC300420AF84F0B00440B0049096F430B0655CB
:100BD3000A33460A934509FD470CD350095E2D0994
:100BE300622E09852B0966230983200CBC2A091E62
:100BF300480000097DE50AB4FF03750A0612086F71
:100C0300FC12086FFD12086FFE12086FFF90823905
:100C130002029F790AA2D5200314300509B91002F4
:100C23000404B9080104A2D52006025001042002DD
:100C3300689202B509005034C0E07F203003197F69
:100C430030A20272067205500F120C6FC202C20666
:100C5300C205C2087F30800F300503E9C0E01208E7
:100C6300B2300503D0E0F9D0E0B509CC3005177FE9
:100C730030B9100C1208B27F583004077F78800314
:100C8300B908031208B23002057F2D0208B27F2093
:100C93002008F87F2B2006F322920280CF7F00B436
:100CA3000700500B2439F582E43482F583E0FF22F8
:100CB300286E756C6C2900D20112086F3001F8C2DE
:100CC30001780930D50108F602091E2D5043495811
:100CD30012086F2403B405004001E4900CCE931274
:100CE30008A3743A1208A3D203750904020AF44450
:100CF30047555320546F6F6C0000004447555320F1
:100D0300544553542054455854000000253032585C
:100D130020000000000000000000000000000000B0
:100D230000000000000000000000000000000000C0
:100D330000000000000000000000000000000000B0
:100D430000000000000000000000000000000000A0
:100D53000000000000000000000000000000000090
:100D63000000000000000000000000000000000080
:100D73000000000000000000000000000000000070
:100D83000000000000000000000000000000000060
:100D93000000000000000000000000000000000050
:100DA3000000000000000000000000000000000040
:100DB3000000000000000000000000000000000030
:100DC3000000000000000000000000000000000020
:100DD3000000000000000000000000000000000010
:100DE3000000000000000000000000000000000000
:100DF30000000000000000000000000000000000F0
:100E030000000000000000000000000000000000DF
:100E130000000000000000000000000000000000CF
:100E230000000000000000000000000000000000BF
:100E330000000000000000000000000000000000AF
:100E4300000000000000000000000000000000009F
:100E5300000000000000000000000000000000008F
:100E6300000000000000000000000000000000007F
:100E7300000000000000000000000000000000006F
:100E8300000000000000000000000000000000005F
:100E9300000000000000000000000000000000004F
:100EA300000000000000000000000000000000003F
:100EB300000000000000000000000000000000002F
:100EC300000000000000000000000000000000001F
:100ED300000000000000000000000000000000000F
:100EE30000000000000000000000000000000000FF
:100EF30000000000000000000000000000000000EF
:100F030000000000000000000000000000000000DE
:100F1300000000000000000000007BFF7A0D79153F
:100F230078017C807D017E007F081206E27BFF7AD8
:100F33000D791D780F7C807D017E027F001206E211
:100F43001200197BFF7A0C79F2908216E4F0A374F5
:100F530007F07F007E201210517FE87E0312157484
:100F63007BFF7A0C79FE908216E4F0A37409F07F7C
:100F7300327E201210517F807E257D007C0012146A
:100F8300819082B5E0FEA3E0EE20E70302104A90D1
:100F930082B5A3E0FFEE547F90800BF0A3EFF0E463
:100FA30090820FF0A3F090800DF0A3F090800BE0FF
:100FB300FEA3E0FFA3E0FCA3E0C39FEC9E505A9086
:100FC300820FE0FEA3E0240FF974803EFA7B01C098
:100FD30003C002C0017BFF7A0D790F9082141208BF
:100FE3004090800DE0FEA3E02447F58274823EF535
:100FF30083E0FF908217E4F0A3EFF0D001D002D09A
:10100300031208D490820FEE8FF012076090800DC8
:10101300E475F00112076080937B017A80790F9069
:10102300820FE0FEA3E0FFEEC313FEEF132401FFE4
:10103300E43E908216F0A3EFF07F007E2012105161
:10104300E49082B5F0A3F012140A020F8422908276
:1010530011EEF0A3EFF0A3120840908211E0A3E099
:101063005401908218F0908211E0FEA3E0FFEEC3DA
:1010730013FEEF13FF908211EEF0A3EFF0E4F5F10E
:10108300908211E0FEA3E0EEF5F2908211E0A3E07E
:10109300F5F375F40175F88F30FCFD908218E0606C
:1010A3003C908216E0FEA3E0D39400EE9400402D22
:1010B30075F883908213E475F0011208291207086A
:1010C300F5FC908213E475F001120829120708F564
:1010D300FDD2FE90821674FFF5F012076075F88F4B
:1010E300908216E0FEA3E0C39402EE9400404B907E
:1010F3008213E475F001120829120708F5FA9082A9
:1011030013E475F001120829120708F5FB90821306
:10111300E475F001120829120708F5FC908213E424
:1011230075F001120829120708F5FDD2FE90821608
:1011330074FF75F0FE12076080A6908216E0FEA38E
:10114300E04E602375F88C908213E475F001120869
:1011530029120708F5FA908213E475F001120829A1
:10116300120708F5FBD2FEE4F5F82290822B120851
:101173004090822EEDF074FFA3F0A3F0E49082354B
:10118300F0A3F090822EE0FF908235E0FCA3E0C351
:101193009FEC9400400302123390822B120820909C
:1011A3008235E0FEA3E0F5828E83120721FF908251
:1011B3002FE0FCA3E0FDECFEEF6DFF90822FEEF03D
:1011C300A3EFF0E4908237F0908237E0C3940850A5
:1011D3005290822FE0A3E05401FF908233E4F0A306
:1011E300EFF090822FE0FEA3E0FFEEC313FEEF13B8
:1011F300FF90822FEEF0A3EFF0908233E0FEA3E0A6
:101203004E601890822FE0FEA3E0FFEE64A0FEEF95
:101213006401FF90822FEEF0A3EFF0908237E00499
:10122300F080A5908235E475F00112076002118603
:1012330090822FE0FEA3E0EEFFA3E4F0A3EFF09093
:10124300822FA3E0FEA3E0FCA3E0FDEE4CFEEDFF46
:1012530090822FEEF0A3EFF090822FE0FEA3E0FF49
:1012630090822FEEF0A3EFF090822FE0FEA3E0FF39
:1012730022C0E0C0F0C083C082C0D075D000C000DF
:10128300C001C002C003C004C005C006C007C2C677
:1012930074FFFFFEFDFC9082B91207D7C31207A7A4
:1012A30050159082B91207CBE47B01FAF9F81207C3
:1012B3008C9082B91207E374FFFFFEFDFC9082B9A4
:1012C3001207D7C31207A7700A9082B91207EF005B
:1012D300000000780DE6FE08E64E6006E61618707C
:1012E3000116D007D006D005D004D003D002D00118
:1012F300D000D0D0D082D083D0F0D0E032787FE459
:10130300F6D8FD758121021347020F1DE493A3F85C
:10131300E493A34003F68001F208DFF48029E49309
:10132300A3F85407240CC8C333C4540F4420C88300
:101333004004F456800146F6DFE4800B0102040802
:10134300102040809000CDE47E019360BCA3FF5445
:101353003F30E509541FFEE493A360010ECF54C050
:1013630025E060A840B8E493A3FAE493A3F8E493D8
:10137300A3C8C582C8CAC583CAF0A3C8C582C8CAE0
:10138300C583CADFE9DEE780BE90821CEFF0A3ECE1
:10139300F0A3EDF0A3EAF0A3EBF090821CE09082BF
:1013A30021F0A37403F090821DE0FEA3E0EE90828F
:1013B30023F090821DA3E0908224F090821FE0FE30
:1013C300A3E0EE908225F090821FA3E0908226F0A6
:1013D3007B017A8279217D0612116E908229EEF0CB
:1013E300A3EFF0908229E0A3E0908227F090822976
:1013F300E0FEA3E0EE908228F07B017A8279217DE2
:10140300087C001214F2227BFF7A00792678117C83
:10141300827D017E007F051206E2908216E4F0A32E
:1014230004F0A3E4F0A37404F0E490821AF0A3F0B0
:1014330090821AE0FEA3E0C39405EE940050359029
:10144300821AE0A3E02411F58274823EF583E0FF63
:10145300908216E0FCA3E0FDA3E0FAA3E0FB1213E5
:101463008C7F847E0312157490821AE475F0011246
:10147300076080BC7FF47E0112157480AC229082D9
:10148300111207E343C94053B7CF43B71075D88050
:1014930075985053877F9082111207CBE41201A3F2
:1014A300A804A905AA06AB077F007EE07D447C4A19
:1014B3001201061201E1C3E49FFF74049EFEE4FCE3
:1014C300FD9082111207E39082111207CB78081264
:1014D30007B8EFE48FBA9082111207CBEFE48FAA1B
:1014E300D2ACD2AF9082B5F0A3F0908246F02290B6
:1014F300822B12084090822EECF0A3EDF0C2ACE4F4
:10150300A3F0A3F090822EE0FEA3E0FFA3E0FCA3F0
:10151300E0C39FEC9E502790822B120820908230CC
:10152300E0FEA3E0F5828E83120721F5993099FD41
:10153300C299908230E475F00112076080C6D2AC84
:1015430022C2AFC2D3C2D4E4F58E75C870F59375C9
:101553009401759502F5C9F5F875F901F5A843B835
:1015630030F59AF5A9F5B953C9FDD2BDD2BCD2AFB6
:101573002290821CEEF0A3EFF090821CE0FEA3E029
:10158300FF780DA60608A607780DE6FE08E64E705E
:10159300F722908242EFF0C2ACE0F5993099FDC298
:1015A30099D2AC22908241EFF0E0FF121595908220
:0415B30041E0FF22F2
:00000001FF
