:1000000002121E75C870E4F5CDF5CC75CBBC75CA6F
:10001000CD43A820D2C8D2AF2212136D1200032202
:0300230002002EAA
:10002B00021192C0E0C0F0C083C082C0D075D00076
:10003B00C000C004C006C007309874C298908000FE
:10004B00E599F09082AAE0FEA3E0EE20E7619082B2
:10005B00AAE0FEA3E0C39464EE9400501F908000CE
:10006B00E0FF9082AAE475F001120776FC74442538
:10007B00F0F58274823CF583EFF080099082AAE45C
:10008B00F0A3F0802A908243E0C394085003E0046D
:10009B00F0908243E0B408179082AAE0FEA3E0FF41
:1000AB00EE44809082AAF0A3EFF0908243E4F0D06C
:1000BB0007D006D004D000D0D0D082D083D0F0D0DF
:1000CB00E032908211EEF0A3EFF0908211E0FEA3EC
:1000DB00E0FF780DA60608A607780DE6FE08E64EAB
:0300EB0070F72289
:1000F800FFFF4457494E5435021265020257EC5D22
:10010800046005E85904700302024D1202185804ED
:1001180060F6EC4860F2EC7004FDFEFF22C860DB7C
:100128002481C85009C398600250060202549850AE
:10013800CAF582E9294B4A7005AB8202024375F081
:10014800007C1A7880C3EF9BEE9AED99400DC3EFBF
:100158009BFFEE9AFEED99FDE842F0DC23ACF0D06F
:10016800E0FFD0E0FED0E0FDAB8220E7101BEB60A3
:10017800BAEC2CFCEF33FFEE33FEED33FD02022F19
:10018800E803F830E705C0F075F000EF2FFFEE3315
:10019800FEED33FD40B830E7C280AA75F020800E2E
:1001A80075F010800575F0087D007E007F003392A1
:1001B800D530D503120799EC334010EF33FFEE33F7
:1001C800FEED33FDEC33FCD5F0ED22E5F0247EA204
:1001D800D513CC92E7CDCEFF22EDD2E7CD33EC3369
:1001E80092D524814006E4FFFEFDFC22FCE4CFCE3C
:1001F800CDCC24E0501174FF80EDC3CC13CCCD13CB
:10020800CDCE13CECF13CF0470F030D5DE020799D0
:10021800E9D2E7C933E833F892D5EDD2E7CD33EC2C
:1002280033FC5002B2D522EC30E7100FBF000C0EA1
:10023800BE00080DBD00040BEB6014A2D5EB13FC47
:10024800ED92E7FD2274FFFCFDFEFF22E480F8A298
:10025800D574FF13FC7D80E480EFF920E73624F99C
:1002680050037907E4F42402FBE582158270021535
:1002780083DBF6E024FB501BE96014E4F0E582150B
:100288008270021583E004F0B40A08E4F0D9EE7431
:1002980001F00A22C2D522ED33EC3392D5FA602A56
:1002A800B4FF33EDC2E77BFF60067A0279C4E4222B
:1002B8007A0279CD20D5047A0279C8224E614E009F
:1002C8002B494E46002D494E4600E47A08F0A3DA41
:1002D800FC7B00740722C083C082ECC0E0EDC0E064
:1002E800EEC0E0EFC0E0EA75F010A4CAABF075F01C
:1002F8004DA42BFBE435F0FCEA2410FAEB34C5FBE3
:10030800EC34D9FCEDC2E7FF75F056A4F42411C50E
:10031800F0F434C58FF0A42AE5F03BE43CF020E784
:10032800141205D2D0E0FFD0E0FED0E0FDD0E0FC12
:100338001201068014F4041205D2D0E0FFD0E0FECA
:10034800D0E0FDD0E0FC12049CD082D083E0FAED2E
:10035800D2E7CD33EC332482FBE4C3CF33CFCE33A3
:10036800CECD33CD33DBF37B0775F00A846004F020
:10037800A31B0AE5F0F0A38FF0740AA4FFACF08E7B
:10038800F0740AA42CFEACF050010C8DF0740AA491
:100398002CFDE435F0F0A3DBDE74072202024DE801
:1003A8006480F8E933E83360110460F0ED33EC332E
:1003B8007009E8FCE9FDEAFEEBFF220460DED3EBFE
:1003C8009FEA9EE99DE8C2E78CF0C2F795F0400CE1
:1003D800E8CCF8E9CDF9EACEFAEBCFFB12021885A2
:1003E800D0F05804700320D5B3E80470075002B267
:1003F800D502025792D5EC0460F7E4CCC0E0C3986C
:10040800F8603B94186008400DD0E0FB02022FE42E
:10041800FBFAC9FC8028E830E406E4C9FBE4CAFC1E
:10042800E830E305E4C9CACBFCE854076010F8C318
:10043800E913F9EA13FAEB13FBEC13FCD8F130F5E6
:100448002FC3E49CFCEF9BFFEE9AFEED99FDD0E0F4
:10045800FBEF4E4D4C701222DB03020254EC2CFCD5
:10046800EF33FFEE33FEED33FDED30E7EB02022F05
:10047800EF2BFFEE3AFEED39FDD0E0FB50130BBB3E
:100488000003020257ED13FDEE13FEEF13FFEC130A
:10049800FC02022FEC4D6011E8497017ED33EC3384
:1004A80004600DE4FCFFFEFD22E933E8330470F834
:1004B80002024D12021858046009E4CC2481500647
:1004C800285009020257284003020254C0E0EB4AB0
:1004D8007044B98006D0E0FB020243EF4E701CBDA9
:1004E8008008EBFFEAFEE9FD80EBE98DF0A4FEE56C
:1004F800F0020585E9CDF9EAFEEBFFEF89F0A4FCEF
:10050800E5F0CE89F0A42EFFE435F0CD89F0A42DD6
:10051800FEE435F08067EF4E7005BD80D780C3EFED
:100528008BF0A4ACF0EE8BF0A42CFCE435F0F8EFE3
:100538008AF0A42CE5F038FCE433CB8DF0A42CFC35
:10054800E5F03BF8EE8AF0A42CFCE5F038F8E4334B
:10055800CF89F0A42CFCE5F038CF3400CE89F0A484
:100568002FFFE5F03EFEE433C98DF0A42EFEE5F042
:1005780039CD8AF0A42FFFE5F03EFEE43DFD33D0EF
:10058800E0FB50070BBB000F020257EC2CFCEF33CB
:10059800FFEE33FEED33FD02022F3F8000004120C5
:1005A800000042C80000447A0000461C400047C3CF
:1005B8005000497424004B1896804CBEBC205A0E3B
:1005C8001BCA6753C21C749DC5AEFB600654076006
:1005D8001C2323120600EB543860091205EC12059F
:1005E800FB12049CECF8EDF9EEFAEFCB22EB1205C6
:1005F800FB80F1543803241C9005A2FE93FC0EEEF8
:1006080093FD0EEE930ECE93FF22E709F608DFFA6C
:100618008046E709F208DFFA803E88828C83E70982
:10062800F0A3DFFA8032E309F608DFFA8078E309FD
:10063800F208DFFA807088828C83E309F0A3DFFA7E
:10064800806489828A83E0A3F608DFFA8058898269
:100658008A83E0A3F208DFFA804C80D280FA80C651
:1006680080D4806980F28033801080A680EA809AE6
:1006780080A880DA80E280CA803389828A83ECFA93
:10068800E493A3C8C582C8CCC583CCF0A3C8C582EF
:10069800C8CCC583CCDFE9DEE7800D89828A83E494
:1006A80093A3F608DFF9ECFAA9F0EDFB2289828A18
:1006B80083ECFAE0A3C8C582C8CCC583CCF0A3C834
:1006C800C582C8CCC583CCDFEADEE880DB89828AB4
:1006D80083E493A3F208DFF980CC88F0EF60010E81
:1006E8004E60C388F0ED2402B4040050B9F582EBE3
:1006F8002402B4040050AF2323458223900662737A
:10070800BB010689828A83E0225002E722BBFE02EF
:10071800E32289828A83E49322BB010CE58229F5CE
:1007280082E5833AF583E0225006E92582F8E6223D
:10073800BBFE06E92582F8E222E58229F582E583F7
:100748003AF583E49322BB010689828A83F022501A
:1007580002F722BBFE01F322C5F0F8A3E028F0C59A
:10076800F0F8E582158270021583E038F022A3F8CC
:10077800E0C5F025F0F0E582158270021583E0C827
:1007880038F0E822EF2BFFEE3AFEED39FDEC38FCAD
:1007980022C3E49FFFE49EFEE49DFDE49CFC22EB63
:1007A8009FF5F0EA9E42F0E99D42F0E89C45F02270
:1007B800E8600FECC313FCED13FDEE13FEEF13FF1F
:1007C800D8F122E0FCA3E0FDA3E0FEA3E0FF22E0D5
:1007D800F8A3E0F9A3E0FAA3E0FB22ECF0A3EDF024
:1007E800A3EEF0A3EFF022A8828583F0D083D08215
:1007F800120806120806120806120806E473E493A3
:10080800A3C583C5F0C583C8C582C8F0A3C583C581
:10081800F0C583C8C582C822E0FBA3E0FAA3E0F9CB
:1008280022F8E0FBA3A3E0F925F0F0E58215827039
:10083800021583E0FA38F022EBF0A3EAF0A3E9F01E
:1008480022D083D082F8E4937012740193700DA3C0
:10085800A393F8740193F5828883E4737402936810
:1008680060EFA3A3A380DFE5082414F582E43482B3
:10087800F583E0050822908211300703908214E482
:1008880075F0011208290207082000E97F2ED2001E
:100898008018EF540F2490D43440D4FF30040BEF69
:1008A80024BFB41A0050032461FFE509600215094A
:1008B800050CE50C7002050B30070E908211E475EB
:1008C800F001120829EF02074E0213AF7403D20792
:1008D8008003E4C207F508908211120840E4F50984
:1008E800F50BF50CE50960077F201208B280F57555
:1008F8000AFFC201C200C202C203C205C206C20880
:1009080012087EFF700D3007057F001208C3AF0C78
:10091800AE0B22B4255FC2D5C20412087EFF24D0D4
:10092800B40A00501A75F00A780930D50508B6FFE0
:100938000106C6A426F620D5047002D20380D92465
:10094800CFB41A00EF5004C2E5D204020BB5D201AD
:1009580080C6D20080C0D20280BCD2D580BAD2056F
:1009680080B47F201208B22002077401B509004044
:10097800F112086FFF1208B20208ECD208D2068002
:100988009512086FFB12086FFA12086FF94A4B703C
:100998000679B37A0C7BFF20022EE509602A7E00D7
:1009A8008E8275830012072160060EEE650A70F0CC
:1009B800C2D5EBC0E0EAC0E0E9C0E0EE120C16D008
:1009C800E0F9D0E0FAD0E0FB120708FF60AAEBC01C
:1009D800E0EAC0E0E9C0E01208B2D0E02401F9D0B2
:1009E800E03400FAD0E0FBE50A0460DCD50AD980DF
:1009F80087D20280A2120BF860F7E50A7001041290
:100A08000262A90A600DE50A600914F50A120CA031
:100A1800EF60F3EA30E702F404C3995079EAF42569
:100A28000A0430E701E404F50A800D120BF860C1EE
:100A3800EA050A250A120262EA908240F030E701CC
:100A4800E4250A04D50A0420050114120C16E4C092
:100A5800E0120CA0908240E0601320E70714F01227
:100A6800089A802204F0D0E014C0E07F0012089AAF
:100A7800E50A6007120891150A800B300503120871
:100A880091D0E00208ECD0E00480C4120BF8609E1C
:100A9800E50A04120262908240EAF0E50A200502A3
:100AA8006001042404120C1674FF04C0E0120CA0A8
:100AB80012089AE50A2005026003120891D0E0B5F1
:100AC8000AE87F451208A4908240E07F2B30E704B3
:100AD8007F2DF404C0E01208B2D0E075F00A84C09B
:100AE800F012089BD0E012089B0208EC79108002F3
:100AF8007908C206C2088008D2D5790A8004790A22
:100B0800C2D5E50A047002F50AE4FAFDFEFF1208F0
:100B18006FFC7B0820011312086FFD7B1030000A60
:100B280012086FFE12086FFF7B20EC3382D592D536
:100B38005013C3E43000069FFFE49EFEE420010347
:100B48009DFDE49CFCE4CBF8C201EC700CCFCECD4B
:100B5800CCE824F8F870F38017C3EF33FFEE33FEC8
:100B6800ED33FDEC33FCEB33FB994002FB0FD8E986
:100B7800EB300105F8D0E0C448B201C0E00AEC4D02
:100B88004E4F78207B0070C2EAB50A0040BCC0E036
:100B9800120C18D0F0D0E0200104C4C0E0C4B201A7
:100BA800C0F012089BD0F0D5F0EB0208EC1208490F
:100BB8000989530AF458095A4C0956420AF84F0B46
:100BC80000440B0049096F430B06550A33460A9344
:100BD8004509FD470CD350095E2D09622E09852B66
:100BE8000966230983200CBC2A091E480000097DD8
:100BF800E50AB4FF03750A0612086FFC12086FFDB8
:100C080012086FFE12086FFF90823902029F790A5C
:100C1800A2D5200314300509B910020404B908014B
:100C280004A2D52006025001042002689202B509E8
:100C3800005034C0E07F203003197F30A2027206D2
:100C48007205500F120C6FC202C206C205C2087F9D
:100C580030800F300503E9C0E01208B2300503D038
:100C6800E0F9D0E0B509CC3005177F30B9100C1287
:100C780008B27F583004077F788003B90803120848
:100C8800B23002057F2D0208B27F202008F87F2BA2
:100C98002006F322920280CF7F00B40700500B2475
:100CA80039F582E43482F583E0FF22286E756C6C96
:100CB8002900D20112086F3001F8C201780930D535
:100CC8000108F602091E2D5043495812086F2403E3
:100CD800B405004001E4900CCE931208A3743A12B4
:100CE80008A3D203750904020AF444475553205453
:100CF8006F6F6C00000044475553205445535420EF
:100D08005445585400000025303258200000000097
:100D180000000000000000000000000000000000CB
:100D280000000000000000000000000000000000BB
:100D380000000000000000000000000000000000AB
:100D4800000000000000000000000000000000009B
:100D5800000000000000000000000000000000008B
:100D6800000000000000000000000000000000007B
:100D7800000000000000000000000000000000006B
:100D8800000000000000000000000000000000005B
:100D9800000000000000000000000000000000004B
:100DA800000000000000000000000000000000003B
:100DB800000000000000000000000000000000002B
:100DC800000000000000000000000000000000001B
:100DD800000000000000000000000000000000000B
:100DE80000000000000000000000000000000000FB
:100DF80000000000000000000000000000000000EB
:100E080000000000000000000000000000000000DA
:100E180000000000000000000000000000000000CA
:100E280000000000000000000000000000000000BA
:100E380000000000000000000000000000000000AA
:100E4800000000000000000000000000000000009A
:100E5800000000000000000000000000000000008A
:100E6800000000000000000000000000000000007A
:100E7800000000000000000000000000000000006A
:100E8800000000000000000000000000000000005A
:100E9800000000000000000000000000000000004A
:100EA800000000000000000000000000000000003A
:100EB800000000000000000000000000000000002A
:100EC800000000000000000000000000000000001A
:100ED800000000000000000000000000000000000A
:100EE80000000000000000000000000000000000FA
:100EF80000000000000000000000000000000000EA
:100F080000000000000000000000000000000000D9
:100F180000000000007BFF7A0D791578017C807D48
:100F2800017E007F081206E27BFF7A0D791D780F9B
:100F38007C807D017E027F001206E21200197BFF91
:100F48007A0C79F2908216E4F0A37407F07F007EA1
:100F5800201210757FE87E031200CD7BFF7A0C7992
:100F6800FE908216E4F0A37409F07F007E20121030
:100F7800757F807E257D007C001212AA9082AAE0EF
:100F8800FEA3E0EE20E70302104A9082AAA3E0FF46
:100F9800EE547F90800BF0A3EFF0E490820FF0A363
:100FA800F090800DF0A3F090800BE0FEA3E0FFA38B
:100FB800E0FCA3E0C39FEC9E505A90820FE0FEA392
:100FC800E0240FF974803EFA7B01C003C002C0011F
:100FD8007BFF7A0D790F90821412084090800DE003
:100FE800FEA3E02444F58274823EF583E0FF9082FC
:100FF80017E4F0A3EFF0D001D002D0031208D49088
:10100800820FEE8FF012076090800DE475F00112E8
:10101800076080937B017A80790F90820FE0FEA3AE
:10102800E0FFEEC313FEEF132401FFE43E908216A7
:10103800F0A3EFF07F007E20121075E49082AAF0F2
:10104800A3F07F2C7E011200CD9082AAE0FEA3E0DF
:101058004E6003020F849080017410F07B017A8047
:10106800790F7D087C0012131B020F8422908211D5
:10107800EEF0A3EFF0A3120840908211E0A3E05431
:1010880001908218F0908211E0FEA3E0FFEEC313F6
:10109800FEEF13FF908211EEF0A3EFF0E4F5F1906C
:1010A8008211E0FEA3E0EEF5F2908211E0A3E0F5F4
:1010B800F375F40175F88F30FCFD908218E0603C00
:1010C800908216E0FEA3E0D39400EE9400402D75C4
:1010D800F883908213E475F001120829120708F5C5
:1010E800FC908213E475F001120829120708F5FD37
:1010F800D2FE90821674FFF5F012076075F88F9093
:101108008216E0FEA3E0C39402EE9400404B908266
:1011180013E475F001120829120708F5FA908213F2
:10112800E475F001120829120708F5FB908213E410
:1011380075F001120829120708F5FC908213E4756E
:10114800F001120829120708F5FDD2FE90821674E4
:10115800FF75F0FE12076080A6908216E0FEA3E0FD
:101168004E602375F88C908213E475F001120829FB
:10117800120708F5FA908213E475F0011208291293
:101188000708F5FBD2FEE4F5F822C0E0C0F0C08302
:10119800C082C0D075D000C000C001C002C003C06A
:1011A80004C005C006C007C2C674FFFFFEFDFC9060
:1011B80082AC1207D7C31207A750159082AC12074A
:1011C800CBE47B01FAF9F812078C9082AC1207E3A2
:1011D80074FFFFFEFDFC9082AC1207D7C31207A76D
:1011E800700A9082AC1207EF00000000780DE6FE4E
:1011F80008E64E6006E61618700116D007D006D02D
:1012080005D004D003D002D001D000D0D0D082D0F5
:1012180083D0F0D0E032787FE4F6D8FD75812102E2
:101228001265020F1DE493A3F8E493A34003F6802C
:1012380001F208DFF48029E493A3F85407240CC8CA
:10124800C333C4540F4420C8834004F45680014675
:10125800F6DFE4800B01020408102040809013BFE1
:10126800E47E019360BCA3FF543F30E509541FFEA0
:10127800E493A360010ECF54C025E060A840B8E411
:1012880093A3FAE493A3F8E493A3C8C582C8CAC594
:1012980083CAF0A3C8C582C8CAC583CADFE9DEE726
:1012A80080BE9082111207E343C94053B7CF43B7BA
:1012B8001075D88075985053877F9082111207CB8C
:1012C800E41201A3A804A905AA06AB077F007EE0E3
:1012D8007D447C4A1201061201E1C3E49FFF7404B5
:1012E8009EFEE4FCFD9082111207E3908211120722
:1012F800CB78081207B8EFE48FBA9082111207CBA7
:10130800EFE48FAAD2ACD2AF9082AAF0A3F0908279
:1013180043F022908211120840908214ECF0A3ED61
:10132800F0C2ACE4A3F0A3F0908214E0FEA3E0FFC7
:10133800A3E0FCA3E0C39FEC9E5027908211120803
:1013480020908216E0FEA3E0F5828E83120721F535
:10135800993099FDC299908216E475F001120760E0
:1013680080C6D2AC22C2AFC2D3C2D4E4F58E75C84F
:1013780070F593759401759502F5C9F5F875F9013D
:10138800F5A843B830F59AF5A9F5B953C9FDD2BD0A
:10139800D2BCD2AF22908242EFF0C2ACE0F59930D5
:1013A80099FDC299D2AC22908241EFF0E0FF12136E
:1013B8009D908241E0FF22020D00004482AC0000B3
:0313C80000000022
:00000001FF
