:100000000217BC75C870E4F5CDF5CC75CBBC75CACC
:10001000CD43A820D2C8D2AF2212190B120003225E
:0300230002002EAA
:10002B00021730C0E0C0F0C083C082C0D075D000D2
:10003B00C000C004C005C006C0072098030200DA48
:10004B00C298908000E599F09083BCE0FEA3E0EEAF
:10005B0020E77C9083BCE0FEA3E0C39464EE9400A5
:10006B00501F908000E0FF9083BCE475F0011207F5
:10007B0098FC744C25F0F58274833CF583EFF0808B
:10008B00099083BCE4F0A3F0804590834BE0FF78AC
:10009B000FE6FC08E6FDC3EF9DE49C5003E004F083
:1000AB0090834BE0FF780FE6FC08E6FDEFB5051FEC
:1000BB00E4B5041B9083BCE0FEA3E0FFEE4480900C
:1000CB0083BCF0A3EFF090834A7401F0A3E4F0D06B
:1000DB0007D006D005D004D000D0D0D082D083D0AA
:0400EB00F0D0E0323F
:1000F800FFFF4457494E5435021803020257EC5D7E
:10010800046005E85904700302024D1202185804ED
:1001180060F6EC4860F2EC7004FDFEFF22C860DB7C
:100128002481C85009C398600250060202549850AE
:10013800CAF582E9294B4A7005AB8202024375F081
:10014800007C1A7880C3EF9BEE9AED99400DC3EFBF
:100158009BFFEE9AFEED99FDE842F0DC23ACF0D06F
:10016800E0FFD0E0FED0E0FDAB8220E7101BEB60A3
:10017800BAEC2CFCEF33FFEE33FEED33FD02022F19
:10018800E803F830E705C0F075F000EF2FFFEE3315
:10019800FEED33FD40B830E7C280AA75F020800E2E
:1001A80075F010800575F0087D007E007F003392A1
:1001B800D530D50312084BEC334010EF33FFEE3344
:1001C800FEED33FDEC33FCD5F0ED22E5F0247EA204
:1001D800D513CC92E7CDCEFF22EDD2E7CD33EC3369
:1001E80092D524814006E4FFFEFDFC22FCE4CFCE3C
:1001F800CDCC24E0501174FF80EDC3CC13CCCD13CB
:10020800CDCE13CECF13CF0470F030D5DE02084B1D
:10021800E9D2E7C933E833F892D5EDD2E7CD33EC2C
:1002280033FC5002B2D522EC30E7100FBF000C0EA1
:10023800BE00080DBD00040BEB6014A2D5EB13FC47
:10024800ED92E7FD2274FFFCFDFEFF22E480F8A298
:10025800D574FF13FC7D80E480EFF920E73624F99C
:1002680050037907E4F42402FBE582158270021535
:1002780083DBF6E024FB501BE96014E4F0E582150B
:100288008270021583E004F0B40A08E4F0D9EE7431
:1002980001F00A22C2D522ED33EC3392D5FA602A56
:1002A800B4FF33EDC2E77BFF60067A0279C4E4222B
:1002B8007A0279CD20D5047A0279C8224E614E009F
:1002C8002B494E46002D494E4600E47A08F0A3DA41
:1002D800FC7B00740722C083C082ECC0E0EDC0E064
:1002E800EEC0E0EFC0E0EA75F010A4CAABF075F01C
:1002F8004DA42BFBE435F0FCEA2410FAEB34C5FBE3
:10030800EC34D9FCEDC2E7FF75F056A4F42411C50E
:10031800F0F434C58FF0A42AE5F03BE43CF020E784
:10032800141205D2D0E0FFD0E0FED0E0FDD0E0FC12
:100338001201068014F4041205D2D0E0FFD0E0FECA
:10034800D0E0FDD0E0FC12049CD082D083E0FAED2E
:10035800D2E7CD33EC332482FBE4C3CF33CFCE33A3
:10036800CECD33CD33DBF37B0775F00A846004F020
:10037800A31B0AE5F0F0A38FF0740AA4FFACF08E7B
:10038800F0740AA42CFEACF050010C8DF0740AA491
:100398002CFDE435F0F0A3DBDE74072202024DE801
:1003A8006480F8E933E83360110460F0ED33EC332E
:1003B8007009E8FCE9FDEAFEEBFF220460DED3EBFE
:1003C8009FEA9EE99DE8C2E78CF0C2F795F0400CE1
:1003D800E8CCF8E9CDF9EACEFAEBCFFB12021885A2
:1003E800D0F05804700320D5B3E80470075002B267
:1003F800D502025792D5EC0460F7E4CCC0E0C3986C
:10040800F8603B94186008400DD0E0FB02022FE42E
:10041800FBFAC9FC8028E830E406E4C9FBE4CAFC1E
:10042800E830E305E4C9CACBFCE854076010F8C318
:10043800E913F9EA13FAEB13FBEC13FCD8F130F5E6
:100448002FC3E49CFCEF9BFFEE9AFEED99FDD0E0F4
:10045800FBEF4E4D4C701222DB03020254EC2CFCD5
:10046800EF33FFEE33FEED33FDED30E7EB02022F05
:10047800EF2BFFEE3AFEED39FDD0E0FB50130BBB3E
:100488000003020257ED13FDEE13FEEF13FFEC130A
:10049800FC02022FEC4D6011E8497017ED33EC3384
:1004A80004600DE4FCFFFEFD22E933E8330470F834
:1004B80002024D12021858046009E4CC2481500647
:1004C800285009020257284003020254C0E0EB4AB0
:1004D8007044B98006D0E0FB020243EF4E701CBDA9
:1004E8008008EBFFEAFEE9FD80EBE98DF0A4FEE56C
:1004F800F0020585E9CDF9EAFEEBFFEF89F0A4FCEF
:10050800E5F0CE89F0A42EFFE435F0CD89F0A42DD6
:10051800FEE435F08067EF4E7005BD80D780C3EFED
:100528008BF0A4ACF0EE8BF0A42CFCE435F0F8EFE3
:100538008AF0A42CE5F038FCE433CB8DF0A42CFC35
:10054800E5F03BF8EE8AF0A42CFCE5F038F8E4334B
:10055800CF89F0A42CFCE5F038CF3400CE89F0A484
:100568002FFFE5F03EFEE433C98DF0A42EFEE5F042
:1005780039CD8AF0A42FFFE5F03EFEE43DFD33D0EF
:10058800E0FB50070BBB000F020257EC2CFCEF33CB
:10059800FFEE33FEED33FD02022F3F8000004120C5
:1005A800000042C80000447A0000461C400047C3CF
:1005B8005000497424004B1896804CBEBC205A0E3B
:1005C8001BCA6753C21C749DC5AEFB600654076006
:1005D8001C2323120600EB543860091205EC12059F
:1005E800FB12049CECF8EDF9EEFAEFCB22EB1205C6
:1005F800FB80F1543803241C9005A2FE93FC0EEEF8
:1006080093FD0EEE930ECE93FF22E709F608DFFA6C
:100618008046E709F208DFFA803E88828C83E70982
:10062800F0A3DFFA8032E309F608DFFA8078E309FD
:10063800F208DFFA807088828C83E309F0A3DFFA7E
:10064800806489828A83E0A3F608DFFA8058898269
:100658008A83E0A3F208DFFA804C80D280FA80C651
:1006680080D4806980F28033801080A680EA809AE6
:1006780080A880DA80E280CA803389828A83ECFA93
:10068800E493A3C8C582C8CCC583CCF0A3C8C582EF
:10069800C8CCC583CCDFE9DEE7800D89828A83E494
:1006A80093A3F608DFF9ECFAA9F0EDFB2289828A18
:1006B80083ECFAE0A3C8C582C8CCC583CCF0A3C834
:1006C800C582C8CCC583CCDFEADEE880DB89828AB4
:1006D80083E493A3F208DFF980CC88F0EF60010E81
:1006E8004E60C388F0ED2402B4040050B9F582EBE3
:1006F8002402B4040050AF2323458223900662737A
:10070800BB010689828A83E0225002E722BBFE02EF
:10071800E32289828A83E49322BB010CE58229F5CE
:1007280082E5833AF583E0225006E92582F8E6223D
:10073800BBFE06E92582F8E222E58229F582E583F7
:100748003AF583E49322BB010689828A83F022501A
:1007580002F722BBFE01F322F8BB010DE58229F561
:1007680082E5833AF583E8F0225006E92582C8F647
:1007780022BBFE05E92582C8F222C5F0F8A3E028CD
:10078800F0C5F0F8E582158270021583E038F02292
:10079800A3F8E0C5F025F0F0E58215827002158314
:1007A800E0C838F0E822BB010A89828A83E0F5F0C4
:1007B800A3E022500687F009E71922BBFE07E3F5FC
:1007C800F009E3192289828A83E493F5F07401938E
:1007D80022BB0110E58229F582E5833AF583E0F52D
:1007E800F0A3E0225009E92582F886F008E622BB4A
:1007F800FE0AE92582F8E2F5F008E222E5832AF507
:1008080083E993F5F0A3E99322F8BB0111E5822966
:10081800F582E5833AF583E8F0E5F0A3F022500984
:10082800E92582C8F608A6F022BBFE09E92582C898
:10083800F2E5F008F222EF2BFFEE3AFEED39FDEC7F
:1008480038FC22C3E49FFFE49EFEE49DFDE49CFC8B
:1008580022EB9FF5F0EA9E42F0E99D42F0E89C45C4
:10086800F022E8600FECC313FCED13FDEE13FEEF6E
:1008780013FFD8F122E0FCA3E0FDA3E0FEA3E0FF14
:1008880022E0F8A3E0F9A3E0FAA3E0FB22ECF0A34E
:10089800EDF0A3EEF0A3EFF022A8828583F0D083D9
:1008A800D0821208B81208B81208B81208B8E4734F
:1008B800E493A3C583C5F0C583C8C582C8F0A3C5A2
:1008C80083C5F0C583C8C582C822E0FBA3E0FAA3AC
:1008D800E0F922F8E0FBA3A3E0F925F0F0E58215A2
:1008E8008270021583E0FA38F022EBF0A3EAF0A355
:1008F800E9F022D083D082F8E493701274019370E7
:100908000DA3A393F8740193F5828883E4737402AA
:10091800936860EFA3A3A380DFE508241BF582E4B6
:100928003483F583E0050822908318300703908309
:100938001BE475F0011208DB0207082000E97F2E8E
:10094800D2008018EF540F2490D43440D4FF3004E0
:100958000BEF24BFB41A0050032461FFE5096002BD
:100968001509050CE50C7002050B30070E9083186D
:10097800E475F0011208DBEF02074E02199D7403BB
:10098800D2078003E4C207F5089083181208F2E43E
:10099800F509F50BF50CE50960077F20120964805D
:1009A800F5750AFFC201C200C202C203C205C2062F
:1009B800C208120930FF700D3007057F0012097553
:1009C800AF0CAE0B22B4255FC2D5C204120930FFAA
:1009D80024D0B40A00501A75F00A780930D50508F1
:1009E800B6FF0106C6A426F620D5047002D20380FD
:1009F800D924CFB41A00EF5004C2E5D204020C6720
:100A0800D20180C6D20080C0D20280BCD2D580BAC2
:100A1800D20580B47F201209642002077401B50949
:100A28000040F1120921FF12096402099ED208D27E
:100A3800068095120921FB120921FA120921F94AA7
:100A48004B700679657A0D7BFF20022EE509602A36
:100A58007E008E8275830012072160060EEE650AFD
:100A680070F0C2D5EBC0E0EAC0E0E9C0E0EE120CDD
:100A7800C8D0E0F9D0E0FAD0E0FB120708FF60AA7E
:100A8800EBC0E0EAC0E0E9C0E0120964D0E024016C
:100A9800F9D0E03400FAD0E0FBE50A0460DCD50ABE
:100AA800D98087D20280A2120CAA60F7E50A7001E9
:100AB80004120262A90A600DE50A600914F50A1217
:100AC8000D52EF60F3EA30E702F404C3995079EA73
:100AD800F4250A0430E701E404F50A800D120CAA93
:100AE80060C1EA050A250A120262EA908347F030DB
:100AF800E701E4250A04D50A0420050114120CC8EC
:100B0800E4C0E0120D52908347E0601320E7071419
:100B1800F012094C802204F0D0E014C0E07F0012EB
:100B2800094CE50A6007120943150A800B300503D2
:100B3800120943D0E002099ED0E00480C4120CAA36
:100B4800609EE50A04120262908347EAF0E50A20F3
:100B580005026001042404120CC874FF04C0E012EA
:100B68000D5212094CE50A2005026003120943D010
:100B7800E0B50AE87F45120956908347E07F2B309D
:100B8800E7047F2DF404C0E0120964D0E075F00A90
:100B980084C0F012094DD0E012094D02099E791067
:100BA80080027908C206C2088008D2D5790A800472
:100BB800790AC2D5E50A047002F50AE4FAFDFEFFD7
:100BC800120921FC7B08200113120921FD7B10303A
:100BD800000A120921FE120921FF7B20EC3382D57D
:100BE80092D55013C3E43000069FFFE49EFEE42034
:100BF80001039DFDE49CFCE4CBF8C201EC700CCF32
:100C0800CECDCCE824F8F870F38017C3EF33FFEEAD
:100C180033FEED33FDEC33FCEB33FB994002FB0F65
:100C2800D8E9EB300105F8D0E0C448B201C0E00AC9
:100C3800EC4D4E4F78207B0070C2EAB50A0040BCEC
:100C4800C0E0120CCAD0F0D0E0200104C4C0E0C457
:100C5800B201C0F012094DD0F0D5F0EB02099E1296
:100C680008FB0A3B530BA6580A0C4C0A08420BAA6D
:100C78004F0BB2440BB2490A21430BB8550AE5465B
:100C88000B45450AAF470D85500A102D0A142E0A48
:100C9800372B0A18230A35200D6E2A09D048000080
:100CA8000A2FE50AB4FF03750A06120921FC120986
:100CB80021FD120921FE120921FF90834002029FA3
:100CC800790AA2D5200314300509B910020404B921
:100CD800080104A2D52006025001042002689202ED
:100CE800B509005034C0E07F203003197F30A202DC
:100CF80072067205500F120D21C202C206C205C249
:100D0800087F30800F300503E9C0E0120964300520
:100D180003D0E0F9D0E0B509CC3005177F30B91021
:100D28000C1209647F583004077F788003B90803E0
:100D38001209643002057F2D0209647F202008F81B
:100D48007F2B2006F322920280CF7F00B407005049
:100D58000B2440F582E43483F583E0FF22286E7586
:100D68006C6C2900D2011209213001F8C2017809FE
:100D780030D50108F60209D02D50434958120921EF
:100D88002403B405004001E4900D809312095574C2
:100D98003A120955D203750904020BA67BFF7A1093
:100DA80079F578227C007D007E007F301206E27B98
:100DB800FF7A11792578017C807D017E007F0812F9
:100DC80006E29080091208A1000000007BFF7A115A
:100DD800792D78127C807D017E027F001206E21256
:100DE80000197BFF7A1079AE90831DE4F0A3740795
:100DF800F07F057E201214717FE87E0312196A7B4A
:100E0800FF7A1079BA90831DE4F0A37409F07F3754
:100E18007E201214717F807E257D007C0012184888
:100E28007B007A007922121694E49083BAF0A3F03A
:100E380090800DF09083BCE0FEA3E0EE20E7030273
:100E48000F029083BCA3E0FFEE547F90800EF0A3C6
:100E5800EFF0E4908212F0A3F0908010F0A3F090ED
:100E6800800EE0FEA3E0FFA3E0FCA3E0C39FEC9E9E
:100E7800505A908212E0FEA3E02412F974803EFAE0
:100E88007B01C003C002C0017BFF7A1079CB90833D
:100E98001B1208F2908010E0FEA3E0244CF5827447
:100EA800833EF583E0FF90831EE4F0A3EFF0D001CA
:100EB800D002D003120986908212EE8FF0120782B8
:100EC800908010E475F00112078280937B017A808C
:100ED8007912908212E0FEA3E0FFEEC313FEEF1337
:100EE8002401FFE43E90831DF0A3EFF07F057E20F0
:100EF800121471E49083BCF0A3F090800DE06003BD
:100F0800020FDE9083BAE0FEA3E0C39405EE9400DE
:100F18004007E49083BAF0A3F09083BAE0A3E075A9
:100F2800F008A42422F9E4FAFB78527C00FDFE7F45
:100F3800081206E27B007A0079521216947B017A35
:100F48008379BA90831DE4F0A304F07F007E201219
:100F580014717854E608E6785AF67B007A007954DA
:100F680090831DE4F0A304F0FF7E201214717B002F
:100F78007A00795690831DE4F0A304F07F027E2066
:100F88001214717858E6FE08E625E0FFEE33FEEF0E
:100F98002405FFE43E780FF608A6077B007A00795F
:100FA8000F90831DE4F0A37402F07F037E201214D7
:100FB800717B007A00795290831DE4F0A304F07FDE
:100FC800047E2012147190800D7401F09080091233
:100FD80008A10013D62090800912087D74FFFBFA3F
:100FE800F9F812083E90800912089590800DE06487
:100FF800016003020E3C90834AE0640170687A1035
:1010080079D190831DF0A37409F07F377E201214E4
:10101800717B017A83794CC002C00190800EE0FC9C
:10102800A3E0FD7A82791490831D1208F2D001D0D2
:101038000212132DEFB40111908215E01208FB1073
:101048005103105104000010519083BAE475F00167
:10105800120782E490800DF090834AF09080091284
:1010680008A100000000E4FFFEFDFC9080091208C2
:1010780089C31208596003020E3C7BFF7A1079E39A
:1010880090831DF0A37409F07F377E2012147190AD
:1010980083BAE475F001120782E490800DF0908322
:1010A8004AF0020E3C224447555320546F6F6C009F
:1010B8000000444755532054455354205445585430
:1010C8000000002530325820005265636569766556
:1010D8006420202020202020200A0054696D656F9C
:1010E80075742020202020202020200A00000100E4
:1010F80003000000010001000300080002000100D5
:101108000300020002000100030020000400FF00A9
:101118000300FD000100FF0003002F000100000094
:1011280000000000000000000000000000000000B7
:1011380000000000000000000000000000000000A7
:101148000000000000000000000000000000000097
:101158000000000000000000000000000000000087
:101168000000000000000000000000000000000077
:101178000000000000000000000000000000000067
:101188000000000000000000000000000000000057
:101198000000000000000000000000000000000047
:1011A8000000000000000000000000000000000037
:1011B8000000000000000000000000000000000027
:1011C8000000000000000000000000000000000017
:1011D8000000000000000000000000000000000007
:1011E80000000000000000000000000000000000F7
:1011F80000000000000000000000000000000000E7
:1012080000000000000000000000000000000000D6
:1012180000000000000000000000000000000000C6
:1012280000000000000000000000000000000000B6
:1012380000000000000000000000000000000000A6
:101248000000000000000000000000000000000096
:101258000000000000000000000000000000000086
:101268000000000000000000000000000000000076
:101278000000000000000000000000000000000066
:101288000000000000000000000000000000000056
:101298000000000000000000000000000000000046
:1012A8000000000000000000000000000000000036
:1012B8000000000000000000000000000000000026
:1012C8000000000000000000000000000000000016
:1012D8000000000000000000000000000000000006
:1012E80000000000000000000000000000000000F6
:1012F80000000000000000000000000000000000E6
:1013080000000000000000000000000000000000D5
:1013180000000000000000000000000000000000C5
:1013280000000000009083181208F290831BECF074
:10133800A3EDF090831BE0FEA3E0C39404EE9400B9
:1013480050037F63229083181208D290831BE0FE1B
:10135800A3E024FFFFEE34FF8F82F583120721FEFE
:101368009083181208D290831BE0FCA3E024FEFDB2
:10137800EC34FF8D82F583120721FDEEEDFF90839B
:1013880020EEF0A3EFF09083181208D290831BE0B0
:10139800A3E024FEFD12158E908322EEF0A3EFF059
:1013A800908322E0FEA3E0FF908320E0FCA3E06F9F
:1013B8007002EC6E60037F62229083181208D212CA
:1013C8000708FF90831D1208D2EF12074E9083186A
:1013D8001208D2900001120721FF90831D1208D233
:1013E800900001EF12076090831BE0FEA3E024FC4D
:1013F800FFEE34FFFEA31208D2900102EE8FF01226
:101408000811E4908324F0A3F090831D1208D29071
:1014180001021207D9FF908324E0FCA3E0C39FECEC
:1014280095F050429083181208D2908324E0FEA3CE
:10143800E02402FFE43E8F82F583120721FF9083A8
:101448001D1208D2E92402F9E43AFA908324E0A3B1
:10145800E029F9EA3CFAEF12074E908324E475F08C
:101468000112078280A37F0122908318EEF0A3EF78
:10147800F0A31208F2908318E0A3E0540190831FB0
:10148800F0908318E0FEA3E0FFEEC313FEEF13FF16
:10149800908318EEF0A3EFF0E4F5F1908318E0FEE6
:1014A800A3E0EEF5F2908318E0A3E0F5F375F401FC
:1014B80075F88F30FCFD90831FE0603C90831DE041
:1014C800FEA3E0D39400EE9400402D75F88390833A
:1014D8001AE475F0011208DB120708F5FC90831A6C
:1014E800E475F0011208DB120708F5FDD2FE9083BF
:1014F8001D74FFF5F012078275F88F90831DE0FECA
:10150800A3E0C39402EE9400404B90831AE475F074
:10151800011208DB120708F5FA90831AE475F00146
:101528001208DB120708F5FB90831AE475F0011224
:1015380008DB120708F5FC90831AE475F00112081D
:10154800DB120708F5FDD2FE90831D74FF75F0FECF
:1015580012078280A690831DE0FEA3E04E602375EB
:10156800F88C90831AE475F0011208DB120708F56D
:10157800FA90831AE475F0011208DB120708F5FBEC
:10158800D2FEE4F5F8229083261208F2908329ED22
:10159800F074FFA3F0A3F0E4908330F0A3F09083FD
:1015A80029E0FF908330E0FCA3E0C39FEC94004067
:1015B800030216539083261208D2908330E0FEA3CC
:1015C800E0F5828E83120721FF90832AE0FCA3E0D6
:1015D800FDECFEEF6DFF90832AEEF0A3EFF0E490B0
:1015E8008332F0908332E0C39408505290832AE00B
:1015F800A3E05401FF90832EE4F0A3EFF090832A38
:10160800E0FEA3E0FFEEC313FEEF13FF90832AEE84
:10161800F0A3EFF090832EE0FEA3E04E60189083D5
:101628002AE0FEA3E0FFEE64A0FEEF6401FF9083D2
:101638002AEEF0A3EFF0908332E004F080A59083C7
:1016480030E475F0011207820215A690832AE0FEA5
:10165800A3E0EEFFA3E4F0A3EFF090832AA3E0FE5B
:10166800A3E0FCA3E0FDEE4CFEEDFF90832AEEF034
:10167800A3EFF090832AE0FEA3E0FF90832AEEF028
:10168800A3EFF090832AE0FEA3E0FF2290831812D4
:1016980008F29083181208D21207AE90831BF090BC
:1016A80083181208D29000021207D990831CF09078
:1016B80083181208D29000041207D9E5F090831D10
:1016C800F09083181208D29000041207D990831E54
:1016D800F09083181208D29000061207D9E5F0900E
:1016E800831FF09083181208D29000061207D99031
:1016F8008320F07B017A83791B7D0612158E9083F7
:1017080023EEF0A3EFF0908323E0A3E0908322F090
:10171800A3E0FEA3E0EE908321F07B017A83791B9E
:101728007D087C001218B922C0E0C0F0C083C082D6
:10173800C0D075D000C000C001C002C003C004C042
:1017480005C006C007C2C674FFFFFEFDFC9083C03B
:10175800120889C312085950159083C012087DE4F5
:101768007B01FAF9F812083E9083C012089574FFBD
:10177800FFFEFDFC9083C0120889C3120859700A45
:101788009083C01208A100000000780DE6FE08E66C
:101798004E6006E61618700116D007D006D005D0A0
:1017A80004D003D002D001D000D0D0D082D083D0D2
:1017B800F0D0E032787FE4F6D8FD75815A0218033C
:1017C800020DA4E493A3F8E493A34003F68001F286
:1017D80008DFF48029E493A3F85407240CC8C33322
:1017E800C4540F4420C8834004F456800146F6DFF1
:1017F800E4800B010204081020408090193BE47E2D
:10180800019360BCA3FF543F30E509541FFEE493E5
:10181800A360010ECF54C025E060A840B8E493A3AC
:10182800FAE493A3F8E493A3C8C582C8CAC583CAD7
:10183800F0A3C8C582C8CAC583CADFE9DEE780BE8F
:1018480090831812089543C94053B7CF43B7107512
:10185800D88075985053877F90831812087DE412BA
:1018680001A3A804A905AA06AB077F007EE07D4472
:101878007C4A1201061201E1C3E49FFF74049EFE34
:10188800E4FCFD90831812089590831812087D785F
:101898000812086AEFE48FBA90831812087DEFE403
:1018A8008FAAD2ACD2AF9083BCF0A3F090834BF058
:1018B800229083251208F2908328ECF0A3EDF0C261
:1018C800ACE4A3F0A3F0908328E0FEA3E0FFA3E03C
:1018D800FCA3E0C39FEC9E50279083251208D2906A
:1018E800832AE0FEA3E0F5828E83120721F5993062
:1018F80099FDC29990832AE475F00112078280C687
:10190800D2AC22C2AFC2D3C2D4E4F58E75C870F58A
:1019180093759401759502F5C9F5F875F901F5A85F
:1019280043B830F59AF5A9F5B953C9FDD2BDD2BC73
:10193800D2AF22020D00004483C00000000045839E
:10194800B301020304054283B800014283BE0004C8
:101958004183B2004283BA000041834A00020F006B
:101968000000908318EEF0A3EFF0908318E0FEA338
:10197800E0FF780DA60608A607780DE6FE08E64EF5
:1019880070F722908349EFF0C2ACE0F5993099FDE9
:10199800C299D2AC22908348EFF0E0FF12198B90E5
:0519A8008348E0FF226E
:00000001FF
