:1000000002003675C870E4F5CDF5CC75CBBC75CA69
:10001000CD43A820D2C8D2AF221200C212000322C0
:0B002300021021020D0000000212A2DA
:10003300020F4A787FE4F6D8FD75812102007D0224
:100043000BA1E493A3F8E493A34003F68001F20821
:10005300DFF48029E493A3F85407240CC8C333C402
:10006300540F4420C8834004F456800146F6DFE46D
:10007300800B0102040810204080900026E47E01DA
:100083009360BCA3FF543F30E509541FFEE493A3E0
:1000930060010ECF54C025E060A840B8E493A3FAF2
:1000A300E493A3F8E493A3C8C582C8CAC583CAF07E
:1000B300A3C8C582C8CAC583CADFE9DEE780BEC25A
:1000C300AFC2D3C2D4E4F58E75C870F593759401AD
:1000D300759502F5C9F5F875F901F5A843B830F53A
:0F00E3009AF5A9F5B953C9FDD2BDD2BCD2AF224F
:1000F800FFFF4457494E543502007D020257EC5D1C
:10010800046005E85904700302024D1202185804ED
:1001180060F6EC4860F2EC7004FDFEFF22C860DB7C
:100128002481C85009C398600250060202549850AE
:10013800CAF582E9294B4A7005AB8202024375F081
:10014800007C1A7880C3EF9BEE9AED99400DC3EFBF
:100158009BFFEE9AFEED99FDE842F0DC23ACF0D06F
:10016800E0FFD0E0FED0E0FDAB8220E7101BEB60A3
:10017800BAEC2CFCEF33FFEE33FEED33FD02022F19
:10018800E803F830E705C0F075F000EF2FFFEE3315
:10019800FEED33FD40B830E7C280AA75F020800E2E
:1001A80075F010800575F0087D007E007F003392A1
:1001B800D530D503120696EC334010EF33FFEE33FB
:1001C800FEED33FDEC33FCD5F0ED22E5F0247EA204
:1001D800D513CC92E7CDCEFF22EDD2E7CD33EC3369
:1001E80092D524814006E4FFFEFDFC22FCE4CFCE3C
:1001F800CDCC24E0501174FF80EDC3CC13CCCD13CB
:10020800CDCE13CECF13CF0470F030D5DE020696D4
:10021800E9D2E7C933E833F892D5EDD2E7CD33EC2C
:1002280033FC5002B2D522EC30E7100FBF000C0EA1
:10023800BE00080DBD00040BEB6014A2D5EB13FC47
:10024800ED92E7FD2274FFFCFDFEFF22E480F8A298
:10025800D574FF13FC7D80E480EFF920E73624F99C
:1002680050037907E4F42402FBE582158270021535
:1002780083DBF6E024FB501BE96014E4F0E582150B
:100288008270021583E004F0B40A08E4F0D9EE7431
:1002980001F00A22C2D522ED33EC3392D5FA602A56
:1002A800B4FF33EDC2E77BFF60067A0279C4E4222B
:1002B8007A0279CD20D5047A0279C8224E614E009F
:1002C8002B494E46002D494E4600E47A08F0A3DA41
:1002D800FC7B00740722C083C082ECC0E0EDC0E064
:1002E800EEC0E0EFC0E0EA75F010A4CAABF075F01C
:1002F8004DA42BFBE435F0FCEA2410FAEB34C5FBE3
:10030800EC34D9FCEDC2E7FF75F056A4F42411C50E
:10031800F0F434C58FF0A42AE5F03BE43CF020E784
:10032800141205D2D0E0FFD0E0FED0E0FDD0E0FC12
:100338001201068014F4041205D2D0E0FFD0E0FECA
:10034800D0E0FDD0E0FC12049CD082D083E0FAED2E
:10035800D2E7CD33EC332482FBE4C3CF33CFCE33A3
:10036800CECD33CD33DBF37B0775F00A846004F020
:10037800A31B0AE5F0F0A38FF0740AA4FFACF08E7B
:10038800F0740AA42CFEACF050010C8DF0740AA491
:100398002CFDE435F0F0A3DBDE74072202024DE801
:1003A8006480F8E933E83360110460F0ED33EC332E
:1003B8007009E8FCE9FDEAFEEBFF220460DED3EBFE
:1003C8009FEA9EE99DE8C2E78CF0C2F795F0400CE1
:1003D800E8CCF8E9CDF9EACEFAEBCFFB12021885A2
:1003E800D0F05804700320D5B3E80470075002B267
:1003F800D502025792D5EC0460F7E4CCC0E0C3986C
:10040800F8603B94186008400DD0E0FB02022FE42E
:10041800FBFAC9FC8028E830E406E4C9FBE4CAFC1E
:10042800E830E305E4C9CACBFCE854076010F8C318
:10043800E913F9EA13FAEB13FBEC13FCD8F130F5E6
:100448002FC3E49CFCEF9BFFEE9AFEED99FDD0E0F4
:10045800FBEF4E4D4C701222DB03020254EC2CFCD5
:10046800EF33FFEE33FEED33FDED30E7EB02022F05
:10047800EF2BFFEE3AFEED39FDD0E0FB50130BBB3E
:100488000003020257ED13FDEE13FEEF13FFEC130A
:10049800FC02022FEC4D6011E8497017ED33EC3384
:1004A80004600DE4FCFFFEFD22E933E8330470F834
:1004B80002024D12021858046009E4CC2481500647
:1004C800285009020257284003020254C0E0EB4AB0
:1004D8007044B98006D0E0FB020243EF4E701CBDA9
:1004E8008008EBFFEAFEE9FD80EBE98DF0A4FEE56C
:1004F800F0020585E9CDF9EAFEEBFFEF89F0A4FCEF
:10050800E5F0CE89F0A42EFFE435F0CD89F0A42DD6
:10051800FEE435F08067EF4E7005BD80D780C3EFED
:100528008BF0A4ACF0EE8BF0A42CFCE435F0F8EFE3
:100538008AF0A42CE5F038FCE433CB8DF0A42CFC35
:10054800E5F03BF8EE8AF0A42CFCE5F038F8E4334B
:10055800CF89F0A42CFCE5F038CF3400CE89F0A484
:100568002FFFE5F03EFEE433C98DF0A42EFEE5F042
:1005780039CD8AF0A42FFFE5F03EFEE43DFD33D0EF
:10058800E0FB50070BBB000F020257EC2CFCEF33CB
:10059800FFEE33FEED33FD02022F3F8000004120C5
:1005A800000042C80000447A0000461C400047C3CF
:1005B8005000497424004B1896804CBEBC205A0E3B
:1005C8001BCA6753C21C749DC5AEFB600654076006
:1005D8001C2323120600EB543860091205EC12059F
:1005E800FB12049CECF8EDF9EEFAEFCB22EB1205C6
:1005F800FB80F1543803241C9005A2FE93FC0EEEF8
:1006080093FD0EEE930ECE93FF22BB010689828ADC
:1006180083E0225002E722BBFE02E32289828A831A
:10062800E49322BB010CE58229F582E5833AF58340
:10063800E0225006E92582F8E622BBFE06E925827B
:10064800F8E222E58229F582E5833AF583E49322EC
:10065800BB010689828A83F0225002F722BBFE0181
:10066800F322C5F0F8A3E028F0C5F0F8E58215827A
:1006780070021583E038F022A3F8E0C5F025F0F009
:10068800E582158270021583E0C838F0E822C3E4D9
:100698009FFFE49EFEE49DFDE49CFC22E8600FECD5
:1006A800C313FCED13FDEE13FEEF13FFD8F122E0A8
:1006B800FCA3E0FDA3E0FEA3E0FF22ECF0A3EDF035
:1006C800A3EEF0A3EFF022E0FBA3E0FAA3E0F92207
:1006D800F8E0FBA3A3E0F925F0F0E58215827002AB
:1006E8001583E0FA38F022EBF0A3EAF0A3E9F02250
:1006F800D083D082F8E4937012740193700DA3A391
:1007080093F8740193F5828883E4737402936860A4
:10071800EFA3A3A380DFE508240BF582E43482F578
:1007280083E005082290820830070390820BE47565
:10073800F0011206D80206122000E97F2ED20080AE
:1007480018EF540F2490D43440D4FF30040BEF2416
:10075800BFB41A0050032461FFE5096002150905BA
:100768000CE50C7002050B30070E908208E475F05A
:10077800011206D8EF0206580212FA7403D2078053
:1007880003E4C207F5089082081206EFE4F509F5BC
:100798000BF50CE50960077F2012076180F5750AE3
:1007A800FFC201C200C202C203C205C206C20812C9
:1007B800072DFF700D3007057F00120772AF0CAED2
:1007C8000B22B4255FC2D5C20412072DFF24D0B472
:1007D8000A00501A75F00A780930D50508B6FF01E5
:1007E80006C6A426F620D5047002D20380D924CFE9
:1007F800B41A00EF5004C2E5D204020A64D20180A0
:10080800C6D20080C0D20280BCD2D580BAD20580C0
:10081800B47F201207612002077401B5090040F176
:1008280012071EFF12076102079BD208D2068095A5
:1008380012071EFB12071EFA12071EF94A4B700612
:1008480079627A0B7BFF20022EE509602A7E008EF2
:100858008275830012062B60060EEE650A70F0C2E0
:10086800D5EBC0E0EAC0E0E9C0E0EE120AC5D0E08E
:10087800F9D0E0FAD0E0FB120612FF60AAEBC0E064
:10088800EAC0E0E9C0E0120761D0E02401F9D0E055
:100898003400FAD0E0FBE50A0460DCD50AD9808789
:1008A800D20280A2120AA760F7E50A7001041202B8
:1008B80062A90A600DE50A600914F50A120B4FEFE8
:1008C80060F3EA30E702F404C3995079EAF4250AA0
:1008D8000430E701E404F50A800D120AA760C1EAB2
:1008E800050A250A120262EA908237F030E701E42D
:1008F800250A04D50A0420050114120AC5E4C0E03B
:10090800120B4F908237E0601320E70714F01207AC
:1009180049802204F0D0E014C0E07F00120749E5C6
:100928000A6007120740150A800B300503120740BA
:10093800D0E002079BD0E00480C4120AA7609EE5BD
:100948000A04120262908237EAF0E50A2005026082
:1009580001042404120AC574FF04C0E0120B4F12EC
:100968000749E50A2005026003120740D0E0B50AEE
:10097800E87F45120753908237E07F2B30E7047FEA
:100988002DF404C0E0120761D0E075F00A84C0F0CD
:1009980012074AD0E012074A02079B7910800279B1
:1009A80008C206C2088008D2D5790A8004790AC22A
:1009B800D5E50A047002F50AE4FAFDFEFF12071EE7
:1009C800FC7B0820011312071EFD7B1030000A1261
:1009D800071EFE12071EFF7B20EC3382D592D550EE
:1009E80013C3E43000069FFFE49EFEE42001039D4C
:1009F800FDE49CFCE4CBF8C201EC700CCFCECDCC6E
:100A0800E824F8F870F38017C3EF33FFEE33FEEDF8
:100A180033FDEC33FCEB33FB994002FB0FD8E9EBD9
:100A2800300105F8D0E0C448B201C0E00AEC4D4EF0
:100A38004F78207B0070C2EAB50A0040BCC0E012C3
:100A48000AC7D0F0D0E0200104C4C0E0C4B201C09D
:100A5800F012074AD0F0D5F0EB02079B1206F8080F
:100A6800385309A35808094C08054209A74F09AF8C
:100A78004409AF49081E4309B55508E246094245ED
:100A880008AC470B8250080D2D08112E08342B088E
:100A980015230832200B6B2A07CD480000082CE5E7
:100AA8000AB4FF03750A0612071EFC12071EFD1280
:100AB800071EFE12071EFF90823002029F790AA2CB
:100AC800D5200314300509B910020404B90801043B
:100AD800A2D52006025001042002689202B509003E
:100AE8005034C0E07F203003197F30A202720672B2
:100AF80005500F120B1EC202C206C205C2087F3083
:100B0800800F300503E9C0E0120761300503D0E02B
:100B1800F9D0E0B509CC3005177F30B9100C1207B1
:100B2800617F583004077F788003B9080312076192
:100B38003002057F2D0207617F202008F87F2B20D7
:100B480006F322920280CF7F00B40700500B2430B6
:100B5800F582E43482F583E0FF22286E756C6C29F7
:100B680000D20112071E3001F8C201780930D50100
:100B780008F60207CD2D5043495812071E2403B426
:100B880005004001E4900B7D93120752743A120756
:100B980052D2037509040209A31200197F807E2529
:100BA8007D007C001210F57F807E257D007C001280
:100BB80011667BFF7A12797390820DE4F0A37407B3
:100BC800F07F007E20120E2D7FE87E031212C77B75
:100BD800FF7A12797F90820DE4F0A37409F07F0008
:100BE8007E20120E2D9082A1E0FEA3E0EE20E70306
:100BF800020D0B7BFF7A12799090820DE4F0A374BA
:100C080007F07F007E20120E2D9082A1E0FEA3E067
:100C1800FFEE547F908002F0A3EFF07B017A827997
:100C28003B908002E0FCA3E0FD121221E4908206D2
:100C3800F0A3F0908004F0A3F0908002E0FEA3E01F
:100C4800FFA3E0FCA3E0C39FEC9E505A908206E00D
:100C5800FEA3E02406F974803EFA7B01C003C002BB
:100C6800C0017BFF7A12799C90820B1206EF90806C
:100C780004E0FEA3E0243BF58274823EF583E0FFA6
:100C880090820EE4F0A3EFF0D001D002D003120757
:100C980083908206EE8FF012066A908004E475F065
:100CA8000112066A8093908206E475F001120680AC
:100CB800FE740625F0F58274803EF583E4F0908298
:100CC8000675F001120680FE740625F0F582748020
:100CD8003EF583E4F07B017A807906908206E0FE97
:100CE800A3E0FFEEC313FEEF132415FFE43E90824A
:100CF8000DF0A3EFF07F007E20120E2DE49082A16C
:100D0800F0A3F090830AE0FEA3E0EE20E703020BD5
:100D1800ED7BFF7A12799090820DE4F0A37407F0CE
:100D28007F007E20120E2D90830AE0FEA3E0FFEEE6
:100D3800547F908002F0A3EFF07B017A8279A4902F
:100D48008002E0FCA3E0FD1211CCE4908206F0A33F
:100D5800F0908004F0A3F0908002E0FEA3E0FFA3EF
:100D6800E0FCA3E0C39FEC9E505A908206E0FEA3ED
:100D7800E02406F974803EFA7B01C003C002C0017A
:100D88007BFF7A12799C90820B1206EF908004E028
:100D9800FEA3E024A4F58274823EF583E0FF9082EE
:100DA8000EE4F0A3EFF0D001D002D0031207839035
:100DB8008206EE8FF012066A908004E475F0011244
:100DC800066A8093908206E475F001120680FE742C
:100DD8000625F0F58274803EF583E4F0908206756E
:100DE800F001120680FE740625F0F58274803EF547
:100DF80083E4F07B017A807906908206E0FEA3E026
:100E0800FFEEC313FEEF132415FFE43E90820DF0AE
:100E1800A3EFF07F007E20120E2DE490830AF0A34A
:100E2800F0020BED22908208EEF0A3EFF0A3120679
:100E3800EF908208E0A3E0540190820FF0908208BE
:100E4800E0FEA3E0FFEEC313FEEF13FF908208EE6F
:100E5800F0A3EFF0E4F5F1908208E0FEA3E0EEF5F0
:100E6800F2908208E0A3E0F5F375F40175F88F308D
:100E7800FCFD90820FE0603C90820DE0FEA3E0D381
:100E88009400EE9400402D75F88390820AE475F082
:100E9800011206D8120612F5FC90820AE475F001D8
:100EA8001206D8120612F5FDD2FE90820D74FFF5D7
:100EB800F012066A75F88F90820DE0FEA3E0C394E5
:100EC80002EE9400404B90820AE475F0011206D8B5
:100ED800120612F5FA90820AE475F0011206D81289
:100EE8000612F5FB90820AE475F0011206D8120684
:100EF80012F5FC90820AE475F0011206D812061267
:100F0800F5FDD2FE90820D74FF75F0FE12066A8020
:100F1800A690820DE0FEA3E04E602375F88C9082C7
:100F28000AE475F0011206D8120612F5FA90820A40
:100F3800E475F0011206D8120612F5FBD2FEE4F5AC
:100F4800F822C0E0C0F0C083C082C0D075D000C015
:100F580000C004C006C007E5AB20E00302100E5332
:100F6800ABFE908001E5ADF090830AE0FEA3E0EED1
:100F780030E70302100E9082A3E0705F908001E0DA
:100F8800B40D089082A37401F0807B908001E0B4D6
:100F98000A1490830AE0FEA3E0FFEE448090830ADF
:100FA800F0A3EFF0806090830AE0FEA3E0C39464AE
:100FB800EE9400400790830AE4F0A3F0908001E0EB
:100FC800FF90830AE475F001120680FC74A425F0F2
:100FD800F58274823CF583EFF0802B9082A3E0B415
:100FE8000124E4F0908001E0B40A1490830AE0FE42
:100FF800A3E0FFEE448090830AF0A3EFF08007900F
:10100800830AE4F0A3F0D007D006D004D000D0D0F3
:10101800D082D083D0F0D0E032C0E0C0F0C083C02E
:1010280082C0D075D000C000C004C006C007209898
:10103800030210E2C298908000E599F09082A1E046
:10104800FEA3E0EE30E7030210E290823AE0705F20
:10105800908000E0B40D0890823A7401F0807B9093
:101068008000E0B40A149082A1E0FEA3E0FFEE4401
:10107800809082A1F0A3EFF080609082A1E0FEA3AF
:10108800E0C39464EE940040079082A1E4F0A3F0DA
:10109800908000E0FF9082A1E475F001120680FCC8
:1010A800743B25F0F58274823CF583EFF0802B9039
:1010B800823AE0B40124E4F0908000E0B40A14908D
:1010C80082A1E0FEA3E0FFEE44809082A1F0A3EFAE
:1010D800F080079082A1E4F0A3F0D007D006D004F6
:1010E800D000D0D0D082D083D0F0D0E03290820827
:1010F8001206C343C94053B7CF43B71075D880759C
:10110800985053877F9082081206B7E41201A3A86B
:1011180004A905AA06AB077F007EE07D447C4A123D
:1011280001061201E1C3E49FFF74049EFEE4FCFD86
:101138009082081206C39082081206B77808120631
:10114800A4EFE48FBA9082081206B7EFE48FAAD210
:10115800ACD2AF9082A1F0A3F090823AF0229082B4
:10116800081206C353B73F43B78075D88075A78068
:1011780075AB809082081206B7E41201A3A804A9EF
:1011880005AA06AB077F007EE07D447C4A12010673
:101198001201E1C3E49FFF74049EFEE4FCFD90820B
:1011A800081206C39082081206B778081206A4EF40
:1011B800E48FAE9082081206B7EFE48FAFD2BDD2AB
:1011C800BCD2AF229082081206EF90820BECF0A3FB
:1011D800EDF0C2BCE4A3F0A3F090820BE0FEA3E024
:1011E800FFA3E0FCA3E0C39FEC9E502A9082081264
:1011F80006CF90820DE0FEA3E0F5828E8312062BC7
:10120800F5ACE5A730E0FB53A7FE90820DE475F03E
:101218000112066A80C3D2BC229082081206EF909F
:10122800820BECF0A3EDF0C2ACE4A3F0A3F0908243
:101238000BE0FEA3E0FFA3E0FCA3E0C39FEC9E50FD
:10124800279082081206CF90820DE0FEA3E0F58277
:101258008E8312062BF5993099FDC29990820DE480
:1012680075F00112066A80C6D2AC22444755532055
:10127800546F6F6C00000044475553205445535435
:101288002054455854000000494E45525255505478
:1012980020000000253032782000C0E0C0D075D092
:1012A80000C000C006C2C6780DE6FE08E64E60061D
:1012B800E61618700116D006D000D0D0D0E03290D3
:1012C8008208EEF0A3EFF0908208E0FEA3E0FF783A
:1012D8000DA60608A607780DE6FE08E64E70F7226A
:1012E800908239EFF0C2ACE0F5993099FDC299D2FD
:1012F800AC22908238EFF0E0FF1212E8908238E0DA
:02130800FF22C2
:00000001FF
