:100000000213F175C870E4F5CDF5CC75CBBC75CA9B
:10001000CD43A820D2C8D2AF2212002E1200032254
:1000230002131D020D00000002158FC2AFC2D3C21E
:10003300D4E4F58E75C870F593759401759502F542
:10004300C9F5F875F901F5A843B830F59AF5A9F59E
:0B005300B953C9FDD2BDD2BCD2AF2210
:10006B000212469082081207B943C94053B7CF43D7
:10007B00B71075D88075985053877F9082081207F8
:10008B00ADE41201A3A804A905AA06AB077F007E65
:10009B00E07D447C4A1201061201E1C3E49FFF7428
:1000AB00049EFEE4FCFD9082081207B990820812B0
:1000BB0007AD780812079AEFE48FBA9082081207FF
:1000CB00ADEFE48FAAD2ACD2AF9082A1F0A3F090A7
:1000DB00823AF022908239EFF0C2ACE0F599309978
:0600EB00FDC299D2AC2217
:1000F800FFFF4457494E5435021438020257EC5D4D
:10010800046005E85904700302024D1202185804ED
:1001180060F6EC4860F2EC7004FDFEFF22C860DB7C
:100128002481C85009C398600250060202549850AE
:10013800CAF582E9294B4A7005AB8202024375F081
:10014800007C1A7880C3EF9BEE9AED99400DC3EFBF
:100158009BFFEE9AFEED99FDE842F0DC23ACF0D06F
:10016800E0FFD0E0FED0E0FDAB8220E7101BEB60A3
:10017800BAEC2CFCEF33FFEE33FEED33FD02022F19
:10018800E803F830E705C0F075F000EF2FFFEE3315
:10019800FEED33FD40B830E7C280AA75F020800E2E
:1001A80075F010800575F0087D007E007F003392A1
:1001B800D530D50312078CEC334010EF33FFEE3304
:1001C800FEED33FDEC33FCD5F0ED22E5F0247EA204
:1001D800D513CC92E7CDCEFF22EDD2E7CD33EC3369
:1001E80092D524814006E4FFFEFDFC22FCE4CFCE3C
:1001F800CDCC24E0501174FF80EDC3CC13CCCD13CB
:10020800CDCE13CECF13CF0470F030D5DE02078CDD
:10021800E9D2E7C933E833F892D5EDD2E7CD33EC2C
:1002280033FC5002B2D522EC30E7100FBF000C0EA1
:10023800BE00080DBD00040BEB6014A2D5EB13FC47
:10024800ED92E7FD2274FFFCFDFEFF22E480F8A298
:10025800D574FF13FC7D80E480EFF920E73624F99C
:1002680050037907E4F42402FBE582158270021535
:1002780083DBF6E024FB501BE96014E4F0E582150B
:100288008270021583E004F0B40A08E4F0D9EE7431
:1002980001F00A22C2D522ED33EC3392D5FA602A56
:1002A800B4FF33EDC2E77BFF60067A0279C4E4222B
:1002B8007A0279CD20D5047A0279C8224E614E009F
:1002C8002B494E46002D494E4600E47A08F0A3DA41
:1002D800FC7B00740722C083C082ECC0E0EDC0E064
:1002E800EEC0E0EFC0E0EA75F010A4CAABF075F01C
:1002F8004DA42BFBE435F0FCEA2410FAEB34C5FBE3
:10030800EC34D9FCEDC2E7FF75F056A4F42411C50E
:10031800F0F434C58FF0A42AE5F03BE43CF020E784
:10032800141205D2D0E0FFD0E0FED0E0FDD0E0FC12
:100338001201068014F4041205D2D0E0FFD0E0FECA
:10034800D0E0FDD0E0FC12049CD082D083E0FAED2E
:10035800D2E7CD33EC332482FBE4C3CF33CFCE33A3
:10036800CECD33CD33DBF37B0775F00A846004F020
:10037800A31B0AE5F0F0A38FF0740AA4FFACF08E7B
:10038800F0740AA42CFEACF050010C8DF0740AA491
:100398002CFDE435F0F0A3DBDE74072202024DE801
:1003A8006480F8E933E83360110460F0ED33EC332E
:1003B8007009E8FCE9FDEAFEEBFF220460DED3EBFE
:1003C8009FEA9EE99DE8C2E78CF0C2F795F0400CE1
:1003D800E8CCF8E9CDF9EACEFAEBCFFB12021885A2
:1003E800D0F05804700320D5B3E80470075002B267
:1003F800D502025792D5EC0460F7E4CCC0E0C3986C
:10040800F8603B94186008400DD0E0FB02022FE42E
:10041800FBFAC9FC8028E830E406E4C9FBE4CAFC1E
:10042800E830E305E4C9CACBFCE854076010F8C318
:10043800E913F9EA13FAEB13FBEC13FCD8F130F5E6
:100448002FC3E49CFCEF9BFFEE9AFEED99FDD0E0F4
:10045800FBEF4E4D4C701222DB03020254EC2CFCD5
:10046800EF33FFEE33FEED33FDED30E7EB02022F05
:10047800EF2BFFEE3AFEED39FDD0E0FB50130BBB3E
:100488000003020257ED13FDEE13FEEF13FFEC130A
:10049800FC02022FEC4D6011E8497017ED33EC3384
:1004A80004600DE4FCFFFEFD22E933E8330470F834
:1004B80002024D12021858046009E4CC2481500647
:1004C800285009020257284003020254C0E0EB4AB0
:1004D8007044B98006D0E0FB020243EF4E701CBDA9
:1004E8008008EBFFEAFEE9FD80EBE98DF0A4FEE56C
:1004F800F0020585E9CDF9EAFEEBFFEF89F0A4FCEF
:10050800E5F0CE89F0A42EFFE435F0CD89F0A42DD6
:10051800FEE435F08067EF4E7005BD80D780C3EFED
:100528008BF0A4ACF0EE8BF0A42CFCE435F0F8EFE3
:100538008AF0A42CE5F038FCE433CB8DF0A42CFC35
:10054800E5F03BF8EE8AF0A42CFCE5F038F8E4334B
:10055800CF89F0A42CFCE5F038CF3400CE89F0A484
:100568002FFFE5F03EFEE433C98DF0A42EFEE5F042
:1005780039CD8AF0A42FFFE5F03EFEE43DFD33D0EF
:10058800E0FB50070BBB000F020257EC2CFCEF33CB
:10059800FFEE33FEED33FD02022F3F8000004120C5
:1005A800000042C80000447A0000461C400047C3CF
:1005B8005000497424004B1896804CBEBC205A0E3B
:1005C8001BCA6753C21C749DC5AEFB600654076006
:1005D8001C2323120600EB543860091205EC12059F
:1005E800FB12049CECF8EDF9EEFAEFCB22EB1205C6
:1005F800FB80F1543803241C9005A2FE93FC0EEEF8
:1006080093FD0EEE930ECE93FF22E709F608DFFA6C
:100618008046E709F208DFFA803E88828C83E70982
:10062800F0A3DFFA8032E309F608DFFA8078E309FD
:10063800F208DFFA807088828C83E309F0A3DFFA7E
:10064800806489828A83E0A3F608DFFA8058898269
:100658008A83E0A3F208DFFA804C80D280FA80C651
:1006680080D4806980F28033801080A680EA809AE6
:1006780080A880DA80E280CA803389828A83ECFA93
:10068800E493A3C8C582C8CCC583CCF0A3C8C582EF
:10069800C8CCC583CCDFE9DEE7800D89828A83E494
:1006A80093A3F608DFF9ECFAA9F0EDFB2289828A18
:1006B80083ECFAE0A3C8C582C8CCC583CCF0A3C834
:1006C800C582C8CCC583CCDFEADEE880DB89828AB4
:1006D80083E493A3F208DFF980CC88F0EF60010E81
:1006E8004E60C388F0ED2402B4040050B9F582EBE3
:1006F8002402B4040050AF2323458223900662737A
:10070800BB010689828A83E0225002E722BBFE02EF
:10071800E32289828A83E49322BB010CE58229F5CE
:1007280082E5833AF583E0225006E92582F8E6223D
:10073800BBFE06E92582F8E222E58229F582E583F7
:100748003AF583E49322BB010689828A83F022501A
:1007580002F722BBFE01F322C5F0F8A3E028F0C59A
:10076800F0F8E582158270021583E038F022A3F8CC
:10077800E0C5F025F0F0E582158270021583E0C827
:1007880038F0E822C3E49FFFE49EFEE49DFDE49C6C
:10079800FC22E8600FECC313FCED13FDEE13FEEF33
:1007A80013FFD8F122E0FCA3E0FDA3E0FEA3E0FFE5
:1007B80022ECF0A3EDF0A3EEF0A3EFF022E0FBA310
:1007C800E0FAA3E0F922F8E0FBA3A3E0F925F0F0B2
:1007D800E582158270021583E0FA38F022EBF0A367
:1007E800EAF0A3E9F022D083D082F8E4937012747F
:1007F8000193700DA3A393F8740193F5828883E4A1
:10080800737402936860EFA3A3A380DFE508240B49
:10081800F582E43482F583E00508229082083007E7
:100828000390820BE475F0011207CE02070820003E
:10083800E97F2ED2008018EF540F2490D43440D48E
:10084800FF30040BEF24BFB41A0050032461FFE506
:100858000960021509050CE50C7002050B30070E3E
:10086800908208E475F0011207CEEF02074E0215D8
:10087800D57403D2078003E4C207F50890820812F2
:1008880007E5E4F509F50BF50CE50960077F20128B
:10089800085780F5750AFFC201C200C202C203C22E
:1008A80005C206C208120823FF700D3007057F0035
:1008B800120868AF0CAE0B22B4255FC2D5C2041271
:1008C8000823FF24D0B40A00501A75F00A780930BA
:1008D800D50508B6FF0106C6A426F620D504700281
:1008E800D20380D924CFB41A00EF5004C2E5D20451
:1008F800020B5AD20180C6D20080C0D20280BCD27C
:10090800D580BAD20580B47F201208572002077418
:1009180001B5090040F1120814FF120857020891A6
:10092800D208D2068095120814FB120814FA12088D
:1009380014F94A4B700679587A0C7BFF20022EE591
:1009480009602A7E008E8275830012072160060ED8
:10095800EE650A70F0C2D5EBC0E0EAC0E0E9C0E09D
:10096800EE120BBBD0E0F9D0E0FAD0E0FB1207089A
:10097800FF60AAEBC0E0EAC0E0E9C0E0120857D087
:10098800E02401F9D0E03400FAD0E0FBE50A046085
:10099800DCD50AD98087D20280A2120B9D60F7E5C8
:1009A8000A700104120262A90A600DE50A600914BE
:1009B800F50A120C45EF60F3EA30E702F404C39934
:1009C8005079EAF4250A0430E701E404F50A800DB9
:1009D800120B9D60C1EA050A250A120262EA90829A
:1009E80037F030E701E4250A04D50A04200501148C
:1009F800120BBBE4C0E0120C45908237E060132074
:100A0800E70714F012083F802204F0D0E014C0E099
:100A18007F0012083FE50A6007120836150A800BA6
:100A2800300503120836D0E0020891D0E00480C4F3
:100A3800120B9D609EE50A04120262908237EAF06A
:100A4800E50A2005026001042404120BBB74FF04AC
:100A5800C0E0120C4512083FE50A200502600312A7
:100A68000836D0E0B50AE87F45120849908237E099
:100A78007F2B30E7047F2DF404C0E0120857D0E044
:100A880075F00A84C0F0120840D0E012084002084D
:100A980091791080027908C206C2088008D2D579F7
:100AA8000A8004790AC2D5E50A047002F50AE4FA54
:100AB800FDFEFF120814FC7B08200113120814FD28
:100AC8007B1030000A120814FE120814FF7B20EC79
:100AD8003382D592D55013C3E43000069FFFE49EBD
:100AE800FEE42001039DFDE49CFCE4CBF8C201EC8C
:100AF800700CCFCECDCCE824F8F870F38017C3EF94
:100B080033FFEE33FEED33FDEC33FCEB33FB994062
:100B180002FB0FD8E9EB300105F8D0E0C448B20178
:100B2800C0E00AEC4D4E4F78207B0070C2EAB50A4F
:100B38000040BCC0E0120BBDD0F0D0E0200104C4DE
:100B4800C0E0C4B201C0F0120840D0F0D5F0EB020A
:100B580008911207EE092E530A995808FF4C08FB12
:100B6800420A9D4F0AA5440AA5490914430AAB55F0
:100B780009D8460A384509A2470C785009032D09B7
:100B8800072E092A2B090B230928200C612A08C3E0
:100B98004800000922E50AB4FF03750A0612081482
:100BA800FC120814FD120814FE120814FF9082307B
:100BB80002029F790AA2D5200314300509B9100250
:100BC8000404B9080104A2D5200602500104200239
:100BD800689202B509005034C0E07F203003197FC5
:100BE80030A20272067205500F120C14C202C2061D
:100BF800C205C2087F30800F300503E9C0E0120843
:100C080057300503D0E0F9D0E0B509CC3005177F9F
:100C180030B9100C1208577F583004077F788003CA
:100C2800B908031208573002057F2D0208577F20A4
:100C38002008F87F2B2006F322920280CF7F00B491
:100C48000700500B2430F582E43482F583E0FF225C
:100C5800286E756C6C2900D2011208143001F8C294
:100C680001780930D50108F60208C32D50434958C8
:100C78001208142403B405004001E4900C73931285
:100C88000848743A120848D203750904020A997B85
:100C9800FF7A0F792978067C807D017E027F001219
:100CA80006E21200197BFF7A0F790690820DE4F0B4
:100CB800A37407F07F007E201211297FE87E0312BB
:100CC80015B47BFF7A0F791290820DE4F0A37409B2
:100CD800F07F007E201211297F807E257D007C0018
:100CE80012006E7F807E257D007C0012147D90822C
:100CF800A1E0FEA3E0EE20E703020DFC9082A1A391
:100D0800E0FFEE547F908002F0A3EFF07B017A823F
:100D1800793B908002E0FCA3E0FD12153DE490824F
:100D280006F0A3F0908004F0A3F0908002E0FEA308
:100D3800E0FFA3E0FCA3E0C39FEC9E505A9082061C
:100D4800E0FEA3E02406F974803EFA7B01C003C0EC
:100D580002C0017BFF7A0F792390820B1207E5907E
:100D68008004E0FEA3E0243BF58274823EF583E034
:100D7800FF90820EE4F0A3EFF0D001D002D003126E
:100D88000879908206EE8FF0120760908004E4756F
:100D9800F0011207608093908206E475F001120753
:100DA80076FE740625F0F58274803EF583E4F090B3
:100DB800820675F001120776FE740625F0F5827436
:100DC800803EF583E4F07B017A807906908206E024
:100DD800FEA3E0FFEEC313FEEF132415FFE43E90DD
:100DE800820DF0A3EFF07F007E20121129E490829B
:100DF800A1F0A3F090830AE0FEA3E0EE20E703024F
:100E08000CF690830AA3E0FFEE547F908002F0A3D3
:100E1800EFF07B017A8279A4908002E0FCA3E0FDE8
:100E28001214E8E4908206F0A3F0908004F0A3F096
:100E3800908002E0FEA3E0FFA3E0FCA3E0C39FECE8
:100E48009E505A908206E0FEA3E02406F974803E84
:100E5800FA7B01C003C002C0017BFF7A0F7923909F
:100E6800820B1207E5908004E0FEA3E024A4F5823B
:100E780074823EF583E0FF90820EE4F0A3EFF0D099
:100E880001D002D003120879908206EE8FF0120783
:100E980060908004E475F0011207608093908206E8
:100EA800E475F001120776FE740625F0F582748069
:100EB8003EF583E4F090820675F001120776FE7421
:100EC8000625F0F58274803EF583E4F07B017A8094
:100ED8007906908206E0FEA3E0FFEEC313FEEF134F
:100EE8002415FFE43E90820DF0A3EFF07F007E20F2
:100EF800121129E490830AF0A3F0020CF622444769
:100F0800555320546F6F6C000000444755532054CC
:100F18004553542054455854000000253032782059
:100F280000000000000000000000000000000000B9
:100F380000000000000000000000000000000000A9
:100F48000000000000000000000000000000000099
:100F58000000000000000000000000000000000089
:100F68000000000000000000000000000000000079
:100F78000000000000000000000000000000000069
:100F88000000000000000000000000000000000059
:100F98000000000000000000000000000000000049
:100FA8000000000000000000000000000000000039
:100FB8000000000000000000000000000000000029
:100FC8000000000000000000000000000000000019
:100FD8000000000000000000000000000000000009
:100FE80000000000000000000000000000000000F9
:100FF80000000000000000000000000000000000E9
:1010080000000000000000000000000000000000D8
:1010180000000000000000000000000000000000C8
:1010280000000000000000000000000000000000B8
:1010380000000000000000000000000000000000A8
:101048000000000000000000000000000000000098
:101058000000000000000000000000000000000088
:101068000000000000000000000000000000000078
:101078000000000000000000000000000000000068
:101088000000000000000000000000000000000058
:101098000000000000000000000000000000000048
:1010A8000000000000000000000000000000000038
:1010B8000000000000000000000000000000000028
:1010C8000000000000000000000000000000000018
:1010D8000000000000000000000000000000000008
:1010E80000000000000000000000000000000000F8
:1010F80000000000000000000000000000000000E8
:1011080000000000000000000000000000000000D7
:1011180000000000000000000000000000000000C7
:1011280000908208EEF0A3EFF0A31207E590820882
:10113800E0A3E0540190820FF0908208E0FEA3E063
:10114800FFEEC313FEEF13FF908208EEF0A3EFF05B
:10115800E4F5F1908208E0FEA3E0EEF5F290820853
:10116800E0A3E0F5F375F40175F88F30FCFD90828B
:101178000FE0603C90820DE0FEA3E0D39400EE9473
:1011880000402D75F88390820AE475F0011207CEAD
:10119800120708F5FC90820AE475F0011207CE12D6
:1011A8000708F5FDD2FE90820D74FFF5F012076076
:1011B80075F88F90820DE0FEA3E0C39402EE9400D0
:1011C800404B90820AE475F0011207CE120708F529
:1011D800FA90820AE475F0011207CE120708F5FBAF
:1011E80090820AE475F0011207CE120708F5FC9008
:1011F800820AE475F0011207CE120708F5FDD2FE47
:1012080090820D74FF75F0FE12076080A690820D23
:10121800E0FEA3E04E602375F88C90820AE475F036
:10122800011207CE120708F5FA90820AE475F00158
:101238001207CE120708F5FBD2FEE4F5F822C0E04B
:10124800C0F0C083C082C0D075D000C000C004C048
:1012580006C007E5AB20E00302130A53ABFE9080FB
:1012680001E5ADF090830AE0FEA3E0EE30E703026B
:10127800130A9082A3E0705F908001E0B40D08909B
:1012880082A37401F0807B908001E0B40A149083FB
:101298000AE0FEA3E0FFEE448090830AF0A3EFF09B
:1012A800806090830AE0FEA3E0C39464EE9400405B
:1012B8000790830AE4F0A3F0908001E0FF90830A8E
:1012C800E475F001120776FC74A425F0F5827482A7
:1012D8003CF583EFF0802B9082A3E0B40124E4F086
:1012E800908001E0B40A1490830AE0FEA3E0FFEEC8
:1012F800448090830AF0A3EFF0800790830AE4F01B
:10130800A3F0D007D006D004D000D0D0D082D083AC
:10131800D0F0D0E032C0E0C0F0C083C082C0D07549
:10132800D000C000C004C006C0072098030213DE26
:10133800C298908000E599F09082A1E0FEA3E0EECB
:1013480030E7030213DE90823AE0705F908000E09D
:10135800B40D0890823A7401F0807B908000E0B46C
:101368000A149082A1E0FEA3E0FFEE44809082A1DF
:10137800F0A3EFF080609082A1E0FEA3E0C3946444
:10138800EE940040079082A1E4F0A3F0908000E082
:10139800FF9082A1E475F001120776FC743B25F0FA
:1013A800F58274823CF583EFF0802B90823AE0B4AA
:1013B8000124E4F0908000E0B40A149082A1E0FED9
:1013C800A3E0FFEE44809082A1F0A3EFF0800790A5
:1013D80082A1E4F0A3F0D007D006D004D000D0D08A
:1013E800D082D083D0F0D0E032787FE4F6D8FD7593
:1013F8008121021438020C97E493A3F8E493A340E4
:1014080003F68001F208DFF48029E493A3F8540777
:10141800240CC8C333C4540F4420C8834004F45672
:10142800800146F6DFE4800B0102040810204080AA
:10143800900026E47E019360BCA3FF543F30E50989
:10144800541FFEE493A360010ECF54C025E060A8AA
:1014580040B8E493A3FAE493A3F8E493A3C8C5823D
:10146800C8CAC583CAF0A3C8C582C8CAC583CADFAB
:10147800E9DEE780BE9082081207B953B73F43B749
:101488008075D88075A78075AB809082081207ADEB
:10149800E41201A3A804A905AA06AB077F007EE011
:1014A8007D447C4A1201061201E1C3E49FFF7404E3
:1014B8009EFEE4FCFD9082081207B990820812078C
:1014C800AD780812079AEFE48FAE9082081207AD44
:1014D800EFE48FAF75B928F5A9D2BDD2BCD2AF223F
:1014E8009082081207E590820BECF0A3EDF0C2BCE5
:1014F800E4A3F0A3F090820BE0FEA3E0FFA3E0FCDE
:10150800A3E0C39FEC9E502A9082081207C59082E0
:101518000DE0FEA3E0F5828E83120721F5ACE5A766
:1015280030E0FB53A7FE90820DE475F001120760CE
:1015380080C3D2BC229082081207E590820BECF09F
:10154800A3EDF0C2ACE4A3F0A3F090820BE0FEA3FD
:10155800E0FFA3E0FCA3E0C39FEC9E502790820825
:101568001207C590820DE0FEA3E0F5828E83120774
:1015780021F5993099FDC29990820DE475F0011218
:10158800076080C6D2AC22C0E0C0D075D000C000D1
:10159800C006C2C6780DE6FE08E64E6006E61618D6
:1015A800700116D006D000D0D0D0E032908208EE7C
:1015B800F0A3EFF0908208E0FEA3E0FF780DA60606
:1015C80008A607780DE6FE08E64E70F722908238E6
:0D15D800EFF0E0FF1200DF908238E0FF220C
:00000001FF
