:020000040800F2
:10000000002000209D130008451300084713000836
:1000100000000000000000000000000000000000E0
:10002000000000000000000000000000491300086C
:1000300000000000000000004B1300084D130008F2
:10004000ED13000800000000ED130008ED13000898
:1000500055130008ED130008ED130008ED13000818
:10006000000000005913000869130008ED13000890
:10007000ED130008ED130008ED1300080000000068
:10008000ED130008000000000000000079130008D4
:1000900000000000ED130008ED130008ED13000848
:1000A000ED130008ED130008ED1300088913000894
:0800B000ED1300080000000040
:1000B80010B5064C2378002B07D1054B002B02D036
:1000C800044800E000BF0123237010BD1000002089
:1000D8000000000010470008044B10B5002B03D0A7
:1000E8000349044800E000BF10BDC04600000000FE
:1000F800140000201047000802B47146490849005E
:10010800095C49008E4402BC7047C046002243087F
:100118008B4274D303098B425FD3030A8B4244D3C7
:10012800030B8B4228D3030C8B420DD3FF22090209
:1001380012BA030C8B4202D31212090265D0030BC8
:100148008B4219D300E0090AC30B8B4201D3CB03BE
:10015800C01A5241830B8B4201D38B03C01A524100
:10016800430B8B4201D34B03C01A5241030B8B4202
:1001780001D30B03C01A5241C30A8B4201D3CB02ED
:10018800C01A5241830A8B4201D38B02C01A5241D2
:10019800430A8B4201D34B02C01A5241030A8B42D5
:1001A80001D30B02C01A5241CDD2C3098B4201D3ED
:1001B800CB01C01A524183098B4201D38B01C01A6B
:1001C800524143098B4201D34B01C01A52410309E2
:1001D8008B4201D30B01C01A5241C3088B4201D391
:1001E800CB00C01A524183088B4201D38B00C01A3E
:1001F800524143088B4201D34B00C01A5241411A65
:1002080000D20146524110467047FFE701B5002071
:1002180000F0F0F802BDC0460029F7D076E7704735
:1002280003460B437FD4002243088B4274D303094F
:100238008B425FD3030A8B4244D3030B8B4228D3F0
:10024800030C8B420DD3FF22090212BA030C8B4216
:1002580002D31212090265D0030B8B4219D300E0B6
:10026800090AC30B8B4201D3CB03C01A5241830B3B
:100278008B4201D38B03C01A5241430B8B4201D3EB
:100288004B03C01A5241030B8B4201D30B03C01A14
:100298005241C30A8B4201D3CB02C01A5241830A8E
:1002A8008B4201D38B02C01A5241430A8B4201D3BD
:1002B8004B02C01A5241030A8B4201D30B02C01AE7
:1002C8005241CDD2C3098B4201D3CB01C01A52414E
:1002D80083098B4201D38B01C01A524143098B42D7
:1002E80001D34B01C01A524103098B4201D30B01C0
:1002F800C01A5241C3088B4201D3CB00C01A5241E5
:1003080083088B4201D38B00C01A524143088B42A9
:1003180001D34B00C01A5241411A00D20146524142
:10032800104670475DE0CA0F00D04942031000D361
:100338004042534000229C4603098B422DD3030AB6
:100348008B4212D3FC22890112BA030A8B420CD3C6
:10035800890192118B4208D3890192118B4204D3EF
:1003680089013AD0921100E08909C3098B4201D36F
:10037800CB01C01A524183098B4201D38B01C01AA9
:10038800524143098B4201D34B01C01A5241030920
:100398008B4201D30B01C01A5241C3088B4201D3CF
:1003A800CB00C01A524183088B4201D38B00C01A7C
:1003B8005241D9D243088B4201D34B00C01A524153
:1003C800411A00D20146634652415B10104601D3E0
:1003D8004042002B00D54942704763465B1000D36A
:1003E800404201B5002000F005F802BD0029F8D010
:1003F80016E770477047C046F7B50192334A0E00BA
:10040800127801780500324C91421BD0402200211D
:1004180004F04EF9802100222E48C90102F00AF8A2
:10042800802100222B48090202F004F8402229000A
:10043800200004F00BF90421274B1A6813688B433A
:100448001360F7BD032B05D802220321200000F01A
:100458005FFCF6E7C218911E0F78013A1278023B4A
:100468003F02D9B2174300F009FC874202D00322A9
:100478001100EBE76978481E0F2824D8FFF73CFEE7
:10048800080E1419231E2323232323232323231E87
:10049800124B2000197800F0E3FCD2E7104B200043
:1004A800197800F021FDCCE73100200000F058FC5D
:1004B800C7E73100200000F091FCC2E72000019955
:1004C80000F058FDBDE70122C0E7C046000000204B
:1004D8008002002000080050240200204200002072
:1004E8004300002013B501240C4B21009A6B09200E
:1004F80022439A639B6B002223400193019B01F0E6
:100508002BFC092001F052FC002221000A2001F0F6
:1005180023FC0A2001F04AFC13BDC046001002402B
:1005280010B5174B174C0C22236096239B01636070
:1005380000232000A360E36023616261A361E3619B
:1005480023626362A36203F06BFF011E01D072B6DF
:10055800FEE7200004F038F8011E01D072B6FEE76D
:10056800200004F051F8002801D072B6FEE7200000
:1005780004F00CF8002801D072B6FEE710BDC046A2
:100588000038014080020020802170B501222048F7
:10059800090201F04FFF1F4C200003F0BDFA1E4E68
:1005A8003368002B02D0300001F056FD1B48036869
:1005B800002B01D001F050FD80212368184D1A68E6
:1005C80001208A431A6008221A62063A1A628023B6
:1005D8002A6BDB0113432B6300F054FF2B6B114A8A
:1005E800200013402B6303F025FAFFF799FFFFF76C
:1005F80079FF402220000C4904F028F804213268D1
:1006080013688B43136000F037FF084B186070BD08
:10061800000800508002002024020020C8010020A9
:1006280000100240FFBFFFFF83010020C40100202B
:1006380010B500F021FF0B4B1B68C01AE1239B008B
:1006480098420DD3FFF7A0FF802100220648C90178
:1006580001F0F0FE802100220348090201F0EAFEC1
:1006680010BDC046C401002000080050002330B56A
:10067800114C85B0029301900533200001A9039322
:1006880001F08EF8002803D00025280005B030BD01
:10069800200001F027FA0028F6D101212000494264
:1006A80001F016F80028EFD1200001F075F885B2A6
:1006B800200001F081FAE8E74C04002010B592B060
:1006C8003422002105A803F0F3FF1022002101A81D
:1006D80003F0EEFF8020800001F05AFF80235B00CA
:1006E8000893002309930E9308330F9380239B02EA
:1006F80010938023022440229B0505A805940A92A2
:100708000C940D94119301F06FFF002801D072B67C
:10071800FEE7072303900490210001A801930294A7
:1007280002F0C2F9002801D072B6FEE712B010BD7F
:10073800802170B5124D00222800C90101F07AFE0F
:1007480000F09AFE0F4C104B402218600F49200011
:1007580003F07CFF102322680D4811680B43042125
:1007680013600C4B1A6813688B43136002F020FC6B
:10077800802128000022090201F05CFE70BDC046FD
:100788000008005080020020C401002083010020DE
:100798001403002024020020114B026810B50C003D
:1007A8009A421BD18021012209020E4801F042FE23
:1007B8000D4802F029FC00F05FFE10210B4B186079
:1007C8000B4B0C481A6813688B43136001F044FC08
:1007D8002300094A09490A48FFF70EFE10BDC04622
:1007E800003801400008005014030020C401002014
:1007F8008002002024020020440000206400002021
:10080800830100200A4B026810B59A420ED1094BA9
:10081800094C1B8809482380094B1B886380FFF714
:1008280025FFA0800748FFF721FFE08010BDC046E4
:100838000020004040000020640000202000001438
:100848003E0000208000001C10B50C000F2906D8BF
:1008580001210388A140002A02D00B43038010BD68
:100868008B43FBE730B500230125DCB2A24201D956
:10087800102B00D130BD04001C412C40CC54013356
:10088800F3E70000F0B5A1B000F0D6FDFFF716FFC2
:100898001422002113A803F00BFF022104270126CC
:1008A800C024D74B24025A6BD6480A435A635A6B62
:1008B80000250A400292029A5A6B21003A435A6371
:1008C8005A6B3A400392039A5A6B32435A635B6BF2
:1008D800002233400493049B01F0ACFDA0200022C9
:1008E8001C21C00501F0A6FDC64813A9139414964F
:1008F8001595169501F07AFC0323A02013938823FD
:1009080013A95B03C0051493159501F06FFCA02093
:100918001C2313A9C005139314961595169501F079
:1009280065FCFFF7DFFDB84CB84B20002360B84BDF
:10093800A5606360E66025616561A561E561256282
:1009480001F07EFD0100A84201D072B6FEE720004A
:1009580001F0D4FD011E01D072B6FEE7200001F0BF
:10096800F3FD051E01D072B6FEE7AF260100102286
:1009780008A803F09DFE0C22290005A803F098FEA4
:100988001C2229000CA803F093FE3422290013A886
:1009980003F08EFE9F4CA04BB600200023606560DC
:1009A800A560E66025616561A56102F03FFC00284D
:1009B80001D072B6FEE7802320005B0108A90893E6
:1009C80002F056FD002801D072B6FEE7200002F0C2
:1009D80057FC002801D072B6FEE7802305900690E8
:1009E80005A92000079302F043FF021E01D072B64A
:1009F800FEE760230E900C930F90FE331190129037
:100A08000CA920000D93109702F0A0FC002801D03B
:100A180072B6FEE780239B011893802313901490ED
:100A280015901690179019901A901B909B041D9082
:100A38001E901F9013A920001C9302F049FF051E69
:100A480001D072B6FEE7200000F098FB14222900BE
:100A58000CA803F02DFE0C22290008A803F028FE9C
:100A68001C22290013A803F023FE6C4F6C4B38009E
:100A78003B607D60BD60FE603D61BD6102F0D6FBFC
:100A8800002801D072B6FEE7380002F0F9FB002812
:100A980001D072B6FEE70C900D900CA9380002F058
:100AA800E7FD002801D072B6FEE708900A9008A971
:100AB800380002F0DDFE021E01D072B6FEE76023A8
:100AC800042613931590FE33380013A91493179630
:100AD80002F03CFC051E01D072B6FEE7380000F0BB
:100AE8004DFBFFF71DFD0C22290013A803F0E0FDC4
:100AF8004C4C4D4B2000236080231B066360012370
:100B0800E361E318DD7723002C331D70052363634D
:100B1800A36323003C33A560E560256166612583F6
:100B2800A5766562A56225631D70E56400F0C0FCCA
:100B3800002801D072B6FEE73C4B1490159013A91B
:100B48002000139300F02CFE002801D072B6FEE7B7
:100B5800374D384B68602B60374BA8602861A86117
:100B68002800EB6002F062FB0090002801D072B60A
:100B7800FEE7200001F03EF8264B0099180001938B
:100B880002F020FE0099380002F01CFE40222B499A
:100B98002B4803F05BFD2B4B28001A681368B343FE
:100BA800136002F005FAFFF743FD1B4B2648D96A8C
:100BB800264C0131FFF7AAFA194B4008D96A208060
:100BC80001312148FFF7A2FA214C224D400820802C
:100BD8002C78002C46D12100019802F045FE210016
:100BE800380002F041FE2A7800211B48FFF72CFE4E
:100BF8001A4B10221A49988AFFF734FED3E7C046E9
:100C08000010024000080050F8030020005800407F
:100C1800B57DB110AC030020002C0140600300201A
:100C2800000400404C040020002401408000001C07
:100C38001403002000200040B80B000083010020AE
:100C480080020020240200200090D00340000020F1
:100C58003E0000203C0000207800002044000020D6
:100C68002C0000200021019802F0ACFD0021380082
:100C780002F0A8FDB7E7C04672B6FEE7F0B5082453
:100C880001250C4B0C4E4118884204D11A0A18024F
:100C9800104380B2F0BD0278534022001F005B0869
:100CA8002F4000D07340013AD2B2002AF6D1013069
:100CB800EAE7C046FFFF000001A0000070B50D0084
:100CC8000600110028001400FFF7D8FF8021030A4E
:100CD8002B552B19587001220B48C90101F0AAFBAA
:100CE800802100220848090201F0A4FB29003000F5
:100CF800A21C02F0BFFE002804D0044802F058F9F4
:100D0800FFF742FC012070BD0008005014030020CA
:100D180013B5074C01AB24789A701C708024644288
:100D28000C43032219005C70FFF7C8FF13BDC046CF
:100D38000000002070B5084A084B15780C0019000F
:100D48001D70802352785B42134303224B708C70D2
:100D5800FFF7B4FF70BDC046830100208400002067
:100D6800F8B51B4D0C00EB78AA781B0213436A797F
:100D7800297912020A435BBA52BA9BB292B29E1800
:100D88000321B6B27D2A02D83C2E04D90221FFF7EE
:100D9800D1FF0020F8BD0F4F0F493F7852000F7068
:100DA8006D788A704D700D0002359E4205D1033270
:100DB800D2B2FFF783FF0120ECE75F00BC46E75B98
:100DC80001333F0A6F706746E75B9BB2AF70EBE792
:100DD800830100200000002084000020F8B51D4D8C
:100DE8000C00EB78AA781B0213436A79297912025E
:100DF8000A435BBA52BA9BB292B29F18791E89B263
:100E08007D2A04D90321FFF795FF0020F8BD3C296E
:100E180001D90221F7E7104E1049367852000E70BA
:100E28000E006D788A704D70BDB202369D4205D1B4
:100E38000332D2B2FFF742FF0120E7E75F00BC466A
:100E4800E75B01333F0A77706746E75B9BB2B77091
:100E5800EBE7C0468301002000000020840000204A
:100E6800FA2170B51C4E0400F378B27875791B022C
:100E7800134332792D0215436DBAADB26A1E5BBABF
:100E880092B29BB2C9008A4205D303212000FFF722
:100E980051FF002070BDEB18013B9BB2C72B01D955
:100EA8000221F3E7FC2200210C4803F001FC072291
:100EB8000B4B0C491B782A400B707378ED084B706C
:100EC800531E9A415219D2B28A7003322000D2B20C
:100ED800FFF7F4FE0120DDE78301002087000020F2
:100EE8000000002084000020FA2170B51D4E050086
:100EF800F378B27874791B021343327924021443CD
:100F080064BAA4B2621E5BBA92B29BB2C9008A42AA
:100F180005D303212800FFF70DFF002070BDE3185B
:100F2800013B9BB2C72B01D90221F3E7FB22002129
:100F38000D4803F0BDFB07220C4B0D491B782240DE
:100F48000B707378E4084B70531E9A4112190124F0
:100F5800D2B28A7003322800D2B2CC70FFF7AEFE4C
:100F68002000DBE78301002088000020000000202B
:100F780084000020F7B5224AD478937824021C43D1
:100F8800537915791B022B435BBA9BB25D1E967988
:100F98007A2D04D90321FFF7CDFE0020FEBD5D00A8
:100FA800AE42F7D164BAA4B2E3185E1EB6B29BB2E1
:100FB800150001933C2E01D90221ECE7EF792600B8
:100FC8003F02BC4663462F7A01341F43019B7600DB
:100FD800A4B277520235A342F0D10A4B0A491B78D2
:100FE8000B7053784B7093788B70D378CB701379E0
:100FF8000B71537906224B71FFF760FE0120CDE794
:1010080083010020000000208400002007B5012192
:101018000C4B04201A6C0A431A641A6C0A4080218B
:101028000092009ADA6B49050A43DA630022DB6B07
:101038000B4001931100019B00F08EFE042000F08C
:10104800B5FE07BD0010024010B5040088B0142298
:10105800002103A803F02CFB104B22689A421AD1F6
:1010680080210F4B49031A6CA0200A431A641A6C9A
:10107800C0050A4001210192019A5A6B0A435A633A
:101088005B6B0B400293029BA02303A903939D3B38
:10109800049301F0ABF808B010BDC046002401402D
:1010A8000010024010B5040088B01422002103A8E3
:1010B80003F0FEFA114B22689A421DD10122104C0E
:1010C800A020636B03A913436363636BC0051340DC
:1010D8000193019BC0235B010393122304930C3BF0
:1010E800079301F083F88022E36BD2031343E36391
:1010F800E36B13400293029B08B010BD00580040F8
:10110800001002401FB50368184A93420BD1802192
:10111800174B09011A6C0A431A641B6C0B400193A4
:10112800019B05B000BD134A934209D10221104B1F
:10113800DA6B0A43DA63DB6B0B400293029BF0E73E
:101148000D4A9342EDD18021094B09021A6C1320F4
:101158000A431A641B6C00220B4003930321039B70
:1011680000F0FAFD132000F021FEDAE7002C014020
:1011780000100240000400400020004010B50400A8
:1011880088B01422002103A803F092FA2368164AB3
:10119800934216D10121154B5A6B0A435A635B6B74
:1011A8000B400193019B80235B000393FE3B049358
:1011B8000693A02003A9C005079301F017F808B00B
:1011C80010BD0B4A9342FAD10123084A516B1943C7
:1011D8005163526B1A400292029A402203923E3A9D
:1011E80004920692E5E7C046002C01400010024038
:1011F8000004004070B506008EB01422002103A838
:1012080003F056FA1822002108A803F051FA334BCC
:1012180032689A4260D1012308A8089301F006FDBC
:10122800002801D0FFF728FD80212D4BC9011A6C39
:1012380000250A431A641A6C2A480A400192019A46
:101248000222596B114359635B6B03A91340029344
:10125800029BC0230492039305950695079500F019
:10126800C5FF214C214B20002360322363604E339D
:101278002361C0239B01A560E5606561A561E56107
:10128800236200F003FEA84201D0FFF7F5FC331DEE
:10129800DC67A662164B174C8022236033236360F9
:1012A800233BA3600023E3606361A361E3618023C0
:1012B80020009B012261236200F0E8FD002801D094
:1012C800FFF7DAFC1B2000220121F467A66200F078
:1012D80043FD1B2000F06AFD0EB070BD00380140D0
:1012E80000100240000400502402002008000240C0
:1012F8001C000240C80100200C4B026810B5040015
:101308009A4212D10A4A0B49136C0B480B401364DA
:10131800C02101F01DF8231DD86F00F011FEE06F09
:1013280000F00EFE1B2000F04DFD10BD00380140FE
:1013380000100240FFBFFFFF00040050FEE7FEE779
:101348007047704710B500F08BF810BD704700006B
:1013580010B5024800F0F4FE10BDC046240200207B
:1013680010B5024800F0ECFE10BDC046C8010020D0
:1013780010B5024801F068FE10BDC04614030020F5
:1013880010B5024802F082FC10BDC0468002002061
:10139800704700000D488546FFF7FAFF0C480D49D5
:1013A8000D4A002302E0D458C4500433C4188C42B8
:1013B800F9D30A4A0A4C002301E013600432A2421E
:1013C800FBD303F07DF9FFF75DFAFEE7002000206C
:1013D8000000002010000020BC470008100000207A
:1013E800B4040020FEE7000070B5104B0500197822
:1013F800002901D1012070BDFA208000FEF786FE89
:101408000B4C01002068FEF781FE00F0EBFC041E87
:10141800F0D1032DEED8020001202900404200F04F
:101428009BFC044B20001D60E5E7C0460800002037
:10143800040000200C0000208023084A5B0011688B
:1014480010B50B4300201360FFF7CEFF041E03D135
:10145800FFF7DCFD200010BD0124FBE7002002405F
:10146800034A044B11681B785B1813607047C04629
:10147800B004002008000020014B18687047C046DF
:10148800B004002070B50400FFF7F6FF0500631CE8
:1014980002D0044B1B78E418FFF7EEFF401BA04274
:1014A800FAD370BD0800002080684007C00F70475D
:1014B8000023F0B585B004000393984200D1F0E012
:1014C800856D9D4205D1FFF7BFFD23005433E565C7
:1014D8001D70802325685B05AA681A4200D1A7E021
:1014E8000022AB680192DB0008D410230126A26D0C
:1014F80001961343A365E36D3343E3652800FFF7C3
:10150800D3FF1022A36D1340034300D0CCE0A26D9B
:10151800674B20691A400633FF331343A365AB6852
:10152800DB0761D4276BE1687B1E9F41A368A27E1D
:101538000B43217E3F0389030B43617EC9030B43A1
:1015480051030B439C46002800DB86E04100490814
:10155800230066462C331B785B0033433B430B4325
:10156800611CC97F012905D1002A00D078E08022BA
:1015780052021343626A002A05D0E02149000A405A
:10158800A16A0A431343EA684A490A401343EB60D5
:10159800230062683C33E16C1B78970FBF079C46B9
:1015A8003943012B08D1236C666C33430B43A16C80
:1015B8000B4361463B4319432B693F4F3B400B4369
:1015C80080212B6153005B08C9058B420CD0802316
:1015D8001B069A4208D03949394F0B683B40F0271F
:1015E800BF033A4013430B60072170276B69626B96
:1015F8008B4313436B616969A36BB9431B010B43AD
:101608006B61002834D11023A96A5B420B43AB629B
:1016180007216B690B409A4239D10023E365A26D1B
:1016280003339A43023B1343A365019805B0F0BD09
:10163800AA6824490A401343AB60234B234918681E
:10164800FEF764FD013040000390039B002B00D19E
:1016580046E7039B013B0393F7E78021890377E77C
:101668002022A76D3A43A265E26D1143E16581E747
:1016780080239B039842CBD11C21AB6AE369013BD1
:101688009B000B402C3999400B00216EBEE71223BA
:10169800A26D9A43023B1343A3650123E26D1343F2
:1016A800E36501230193C0E7A36D1A43A265F8E738
:1016B800FDFEFFFF0102DEFF02FCFF1F08270140BD
:1016C800FFFFC3FFE8FFFF6F04000020400D030089
:1016D800F7B5466904000F00082E0AD003680120F8
:1016E800DB680426034204D02023A26D1343A365BC
:1016F800FEBDFFF7C1FE019025682B681E4224D06D
:101708008023A26D9B001343A365C023EA681B01D5
:101718001A4215D1A37E002B12D12B681B070FD5B7
:101728002800FFF7C1FE002827D10C226B689343DD
:101738006B60A26D174B1A400433FF331343A36544
:10174800237E002B22D00020D2E77B1CD5D0FFF7C8
:1017580093FE019BC01AB84201D8002FCCD13200A9
:1017680023681B681A401E42C6D10423A16D543455
:101778000B43636003202270BAE72023A26D134352
:10178800A3650123E26D1343E365D9E70C232B60BE
:10179800D9E7C046FEFEFFFF0368186C70470000DB
:1017A8000023F0B585B003930300009154331A78F1
:1017B80004000220012A4CD0012227691A702568EA
:1017C8002800FFF771FE002800D0E9E0009B042202
:1017D8005B6880219C4697436246009B09061B680C
:1017E800022A00D1B0E05A03520B8F4233D1A96AC2
:1017F8000A43AA62009A6869926819026B4E0A4005
:101808003240884302436A61002B1EDAE021684AAD
:101818006848156849042940834200D07EE080204A
:101828000004054211D11368634D2B400B43184344
:10183800624B106018686249FEF768FC431C0C2074
:1018480058430390039B002B64D100200023543499
:10185800237005B0F0BD1F2167460F401039B9400D
:10186800CE430196266E8E433100002A12D1980E7F
:101878001F321040B840624608439208E1690132BD
:1018880020668A42B6D8A96A01989A00120FBA400F
:101898000140ADE701221342ECD192180120134216
:1018A800E8D1100002321342E4D101301A07E1D422
:1018B8000130DA06DED401309A06DBD401305A064C
:1018C800D8D401301A06D5D40130DA05D2D4013083
:1018D8009A05CFD401305A05CCD401301A05C9D4A1
:1018E8000130DA04C6D401309A04C3D401305A0452
:1018F800C0D401301A04BDD40130DA03BAD401309F
:101908009A03B7D480221800D20210401342B1D0F3
:101918001220AFE7039B013B039393E729488342D7
:101928000BD180204004054200D08EE71368224D79
:101938002B400B431843106087E72348834200D0AD
:1019480083E78020C003EEE78F4204D1AA6A5903D7
:10195800490B8A43AA62002B00DB76E7144A154834
:101968001168834208D1A02310685B040B40124918
:1019780001400B43136068E71248834203D1C02338
:1019880010681B04F2E71048834200D05DE7C020CE
:10199800400413680140084803401943116054E7A4
:1019A8002023A26D01201343A3654FE700FFFF0723
:1019B80008270140001000B0FFFF3FFE0400002090
:1019C800400D0300004000B8002000B470B5056861
:1019D80004002800FFF768FD002801D1002070BD31
:1019E800AB689B0705D4AA680F4B1A401023134312
:1019F800AB60FFF741FD0426050023689B6833426E
:101A0800ECD0FFF739FD401B0228F6D923689B6804
:101A18003342F2D010230120A26D1343A365E36D76
:101A28000343E365DBE7C046E8FFFF7F0023F7B524
:101A380002680193916801330400194201D0002023
:101A4800FEBD90682249084208D01022A16D0A43C1
:101A5800A265E26D13430120E365F1E791681D4F2C
:101A680039400B4393601C4B1B681B0221D4637ED7
:101A7800012BE4D0FFF700FD01250600226813685A
:101A88002B42DCD193682B4203D193683B402B4314
:101A98009360FFF7F1FC801B0228EFD923681B68CD
:101AA8002B42EBD11023A26D1343A365E36D2B43A7
:101AB800D1E70A4B0A491868FEF728FB0130019064
:101AC800019B002BD3D0019B013B0193F8E7C04653
:101AD80017000080E8FFFF7F08270140040000206E
:101AE800400D030070B504000068FFF7DDFC060038
:101AF8000220002E1DD1250054352B78012B18D03B
:101B0800012320002B70FFF791FF002812D1A26D4E
:101B1800094B1A4080235B0013431C22A3652368EA
:101B2800E0651A6028709968044A114004220A4343
:101B38009A6070BD2E70FCE7FEF0FFFFE8FFFF7FA4
:101B48000122036870B5040098689968114201D1B0
:101B5800002070BD02210842FAD105209D68054089
:101B6800012D1ED19A68134802401143032299603F
:101B78001A60FFF781FC060023689B682B42E7D0B8
:101B8800FFF77AFC801B0228F6D923689B682B4252
:101B9800F2D01023A26D1343A365E36D2B43E365D5
:101BA80006E01023A16D0B43A365E36D1A43E265BC
:101BB8000120CEE7E8FFFF7F70B506005436337882
:101BC80004000220012B12D0012520003570FFF7F8
:101BD800FDFE002809D12000FFF7B2FF002804D13C
:101BE800A36D034A13401D43A5650023337070BDE0
:101BF800FEFEFFFFF0B500230500022285B0029328
:101C080054352B7804000092012B3ED001262E700B
:101C1800FFF796FF2368009099680A003240314226
:101C280006D01023A26D1343A36500232B702CE06C
:101C38008026A06D4249360608400631FF3101432F
:101C4800A165D8683F49B44608400190D9683E4824
:101C580001400820D9603D4967469E680E403E43D2
:101C68009E609E68002E13DA029E01360296029F3D
:101C7800374EB742F5D91223A26D9A43023B13435C
:101C8800A36500232B7001230093009805B0F0BDD5
:101C98001E007F27B436366801383E409219002866
:101CA800DAD101269868D20808403043986080202D
:101CB8001F69C00587421CD31E007F27B4363068D1
:101CC800B843104330609A680126114002220A4343
:101CD8009A60FFF7D1FB070023689A6832421ED149
:101CE800DA6801990A43DA600322A36D9343334308
:101CF8009AE718480768F02080033840E0277F03F8
:101D0800B842D9D3800C033886400396039840081C
:101D1800039003980028CFD003980138F8E7FFF71D
:101D2800ABFBC01B0228D7D923689B683342D3D0AA
:101D38001023A26D1343A365E36D3343E365A2E764
:101D4800FDFEFFFF03800000FC7FFFFFE8FFFF7F31
:101D5800FFF102000827014010B5FF2403220B0001
:101D680021000240D20091409B012340C943934087
:101D780000280ADBC0240B4A800880008018A400D1
:101D880002590A401343035110BD0F22104008386E
:101D9800054A800880008018C26911401943C16152
:101DA800F2E7C04600E100E000ED00E0002805DBB6
:101DB8001F2318401E3B8340014A13607047C046EA
:101DC80000E100E0002809DB1F2318401E3B834088
:101DD800034AD367BFF34F8FBFF36F8F7047C04677
:101DE80004E100E08022431E5204012093420DD2F8
:101DF800C021074A07485360036A09061B021B0AE9
:101E08000B43036200200723906013607047C046AD
:101E180010E000E000ED00E0F0B5846CC56C656092
:101E2800046D002C02D0446D856D65601C24056C22
:101E3800084E25401B3CAC4077683C4374600468FE
:101E480063608368102B02D1A260E160F0BDA160DD
:101E5800E260FBE70000024010B50400036C094A89
:101E68009B089B189B00436400681421C0B2083883
:101E7800FEF74CF9044BA3641F2318401E3B834014
:101E8800E36410BD0082001080080240F8B5040029
:101E98000120002C46D02568254B1421E818FEF7B0
:101EA80035F902238000A61D2064F3772B68214AA8
:101EB800A76813402B60E36821693B430B436169C2
:101EC8002A680B43A16920000B43E1690B43216A8F
:101ED8000B4313432B60FFF7BFFF8023DB019F42B7
:101EE80001D1002363603F236268616C13400B607B
:101EF800E06CA16C013A4860032A14D80E4A0F48D6
:101F080099180122013B9A40A2651300002289001A
:101F1800216560650A60436000200123E0630534A1
:101F2800F377E077F8BD002323656365A365F3E7DE
:101F3800F8FFFDBF0F80FFFF3F82001040090240FD
:101F4800F8B5012504002800002C34D02768142196
:101F58003B680026AB433B60174BF818FEF7D6F8F2
:101F68001C238000206418402B008340134A3E60E5
:101F7800516820000B435360FFF76EFF636CE26CFF
:101F88001E60A36C5A6063685A1E032A06D89540DF
:101F98000B495B189B001E600A4B5D600020A31D67
:101FA80020656065A065E06220636063A063E0630C
:101FB8000534D877E077F8BDF8FFFDBF0000024090
:101FC8003F82001040090240F7B5451D0193EE7F9E
:101FD80004000220012E33D00138E877A71DFE7FC8
:101FE800B4466346F6B200960026834230D10130EB
:101FF800F8772568E6632868009B98432860019B6A
:102008002000FFF709FF236BB3421AD00E232A687A
:1020180013432B60636C1A68D20304D580221968B5
:1020280052000A431A60236D002B04D080221968DD
:1020380052000A431A60012300202A6813432B60C8
:10204800FEBD04222B6893432B602A680A23DFE72E
:102058008023E363EE77F3E7F0B5002808D0841D0A
:10206800E37F411D022B05D00423C3630023CB77F4
:102078000120F0BD0E250268466C1368AB4313605F
:102088003368104D2B403360012316689E43166059
:10209800026C1B331A401B3B93400B4E77683B4343
:1020A8007360C26C836C5A60036D002B05D01A688C
:1020B8002A401A60436D826D5A6001230020E3773D
:1020C800C877D6E7FFFEFFFF00000240F8B5811D84
:1020D800CB7F022B03D00423C3630120F8BD0E2459
:1020E80002681C271368456CA34313600123146816
:1020F8009C4314602A68104C22402A60026C0F4DE1
:102108003A4093406E6833436B60C26C836C5A608C
:10211800036D002B05D01A6822401A60436D826D4A
:102128005A6001230022CB77431DDA77836B9342F1
:1021380000D098470020D1E7FFFEFFFF00000240D3
:10214800F8B51C240427016C264A21403C008C4029
:10215800166803681D6826420FD03D420DD01968E5
:10216800890602D41968B943196053681C43036B84
:102178005460002B1BD0984719E002273C008C4084
:10218800264215D03D4213D01968890606D40A257F
:102198001968A94319600121831DD97753681C4325
:1021A80054600022431DDA77C36A9342E3D1F8BD35
:1021B800082427008F403E42F9D02542F7D00E254B
:1021C8001C68AC431C6001231D008D402900546825
:1021D80021435160821DC363D3770022431DDA7700
:1021E800436BE2E700000240C06B70470023F0B584
:1021F80085B00A681400DC4001D105B0F0BD0125A6
:1022080014009D402C4000942A4200D191E04A6875
:102218005F0094460322644622400324BC40E44302
:102228000194541E012C2ED88668019C2640CC6847
:10223800BC403443846044680126AC4325006446AE
:10224800240934409C402C434460C568019C2540C7
:102258008C68BC402C43C460022A16D107250F267F
:102268001D40AD00AE40DC08A40004190294246AA5
:1022780003962600039CA64334000E69AE4026430D
:10228800029C266201E0032ADFD1BA400468019D5E
:1022980025402A43C02402606246A402224248D054
:1022A800254A03259C08A400A4180F221D40ED0010
:1022B800AA40A027266EFF0596430022B8420CD0FC
:1022C8001E4F0132B84208D01D4F0132B84204D027
:1022D8001C4F0332B84200D1023AAA406746324343
:1022E8002266154C009A2668009DD2433543FF02AA
:1022F80001D435001540674625606668009D354362
:10230800BF0201D435001540674665600E4C009D3C
:10231800E66F3543BF0301D4350015406746E567CE
:102328000A4C009EE56F2E43FF0301D415402E0092
:10233800E66701335DE7C04600180240000400501C
:1023480000080050000C0050081802400418024011
:10235800F0B500230F0085B03A00DA4001D105B08E
:10236800F0BD01229A40140001923C40174253D01C
:102378002A4903259A08920052180F211D40ED00A2
:10238800A940166E02910E400396A0260021F6057C
:10239800B0420FD022498C46012160450AD021491C
:1023A8008C460221604505D01F498C4603216045B3
:1023B80000D00231A940039DA94212D11B4E1749F2
:1023C800F56FA543F5671A4EF56FA543F5674D6898
:1023D800A5434D600D68A5430D60116E029CA14395
:1023E8001166032459008C4007210F2619408900E3
:1023F8008E400268019922430260DA08920082182E
:10240800156AB54315628268A243826042688A43AE
:102418004260C268A243C26001339DE700180240CF
:102428000004005000080050000C0050041802403E
:1024380008180240002A01D0816170478162FCE7D8
:1024480070B504000120002C4ED0250041352B78B2
:10245800DAB2002B05D12300403320001A70FEF7B2
:1024680021FE242301212B702368E0681A68A668DE
:102478008A431A601D4962680A401A619A681C49B1
:102488000A409A60012807D18022120232439A60DA
:102498005A681848024009E08422120232439A60BE
:1024A8000228F5D180225868120102435A60586800
:1024B800114A02435A60DA6800200A40DA6061690A
:1024C80022690A43A16909020A43DA60216AE269BA
:1024D8000A431A60012219680A431A6020236064BB
:1024E8002B7020634234207070BDC046FFFFFFF0A0
:1024F800FF7FFFFFFFF7FFFF00800002F0B5040039
:102508004134227803000F000220D6B2202A18D1C5
:102518001D0040352A78012A13D0242222701B6816
:10252800233A196807489143196019680140002047
:10253800196019683943196019680A431A602670C6
:102548002870F0BDFFEFFFFF0200F0B541321478AC
:102558000300E5B20220202C17D11C004034267855
:10256800012E12D0223010701B6823381E68074FC6
:1025780086431E601E6809023E403143196019688F
:1025880008431860002015702070F0BDFFF0FFFFB1
:1025980010B5114C1149236802000B400343236016
:1025A800802300209B009A420ED10D4B0D491868DC
:1025B80006235843FDF7AAFD8022431CD200616917
:1025C80008001040114200D110BD002B01D0013B82
:1025D800F5E70320F8E7C04600700040FFF9FFFF69
:1025E8000400002040420F00F0B5040085B0002828
:1025F80002D1012005B0F0BD0368DB0710D42368C1
:102608009B075CD423681B0700D5C1E023685B07E0
:1026180000D5F2E0E369002B00D079E10020E9E77A
:102628003822AF4DAB681340EA68102B09D1D34369
:102638009B0708D12B689B03E1D56368002BDED18B
:10264800D7E7082BF6D0802263685202934211D153
:102658002A6813432B60FEF70FFF80270600BF028E
:102668002B683B42CBD1FEF707FF801B6428F7D9C4
:102678000320BFE7A021C9028B4208D18023296823
:10268800DB020B432B602B681A432A60E3E72A68B6
:1026980094490A402A602A6893490A402A60002B14
:1026A800D9D1FEF7E9FE80270600BF022B683B421E
:1026B800A5D0FEF7E1FE801B6428F7D9D8E73822B9
:1026C800874DAB681340EA68102B28D103210A40D4
:1026D800022A26D12A68520503D5E268002A00D1C9
:1026E80087E7696862698148120201400A436A60A3
:1026F800002B0CD12B687E4A7E4913402269134374
:102708002B602B687C4A9B045B0FDA400A607B4B8A
:102718001868FEF769FE002800D173E769E7002B07
:10272800D8D0E368002B20D02B68714A802713404B
:102738002269FF0013432B6080232A685B00134340
:102748002B60FEF799FE06002B683B4207D06A68AB
:10275800636966491B020A4013436B6052E7FEF740
:102768008BFE801B0228EFD982E72B68644A8027FA
:1027780013402B60FEF780FE0600FF002B683B42EB
:1027880000D13FE7FEF778FE801B0228F6D96FE7F5
:102798003822534DAB681340182B08D12B6E9B077A
:1027A80000D433E7A369002B00D02FE721E7A26903
:1027B8000123002A10D02A6E022713432B66FEF746
:1027C8005BFE06002B6E3B4200D01FE7FEF754FE6F
:1027D800801B0228F6D94BE72A6E02279A432A66FD
:1027E800FEF74AFE06002B6E3B4200D10EE7FEF7CD
:1027F80043FE801B0228F6D93AE73822384DAB68E9
:102808001340202B08D1EB6D9B0700D402E7A36887
:10281800002B00D0FEE6ECE680220021EB6B52058F
:102828000091134208D1EB6B1343EB63EB6B13403E
:102838000393039B012300938027324E7F00336864
:102848003B4215D0A368012B22D1EA6D1343EB65F7
:10285800FEF712FE02270600EB6D3B4238D0009BC4
:10286800012B00D0D6E6EB6B274A1340EB63D1E689
:1028780033683B433360FEF7FFFD019033683B420A
:10288800E0D1FEF7F9FD019BC01A0228F6D9EFE660
:10289800EA6D052B05D1013B1343EB65EA6D012376
:1028A800D4E701218A43EA65EA6D03318A43EA6580
:1028B800002BCDD1FEF7E0FD02270600EB6D3B4271
:1028C800CDD0FEF7D9FD114B801B9842F6D9CFE643
:1028D800FEF7D2FD0D4B801B9842BDD9C8E6C04615
:1028E80000100240FFFFFEFFFFFFFBFFFF80FFFF1E
:1028F800FFC7FFFF040000200024F4000C000020A4
:10290800FFFEFFFF00700040FFFFFFEF881300008D
:1029180038213F4DAA680A40102A51D03D4A022B5F
:1029280038D12B68802713402B60FEF7A5FD0600E1
:10293800BF042B683B4227D1616A236AEA680B43CC
:10294800354980260A401343E26AB6041343226BD2
:102958001343A26A12021343EB6080232A685B04C4
:1029680013432B608023EA685B051343EB60FEF793
:1029780083FD04002B68334200D04FE6FEF77CFD50
:10298800001B0228F6D973E6FEF776FD801B0228A5
:10299800CFD96DE62B68802613402B60FEF76CFDBF
:1029A8000400B6042B68334204D1EB681B4A134079
:1029B800EB6033E6FEF760FD001B0228F2D957E60C
:1029C800012B00D115E60322E868216A02408A42F9
:1029D80000D00EE67022616A02408A4200D008E602
:1029E800FE21A26AC90101401202914200D000E60C
:1029F800F822E16A920302408A4200D0F9E5236B8B
:102A0800400F4007C01A431E9841C0B2F2E5C046C5
:102A180000100240FFFFFFFE8C80C11FFCFFFEEF8D
:102A2800382370B51D4CA2681A4205D123681C488A
:102A38009B045B0FD84070BDA2681A40082A27D0B3
:102A4800A2681A40102A17D1E368E168DB43E568F9
:102A58004906490F6F322D0A013115409B0709D1EC
:102A68001048FDF753FBE1686843490F0131FDF752
:102A78004DFBE0E70A48F4E7A2681A40202A09D08B
:102A8800A26800201340182BD5D1FA20C001D2E744
:102A98000448D0E780200002CDE7C046001002407D
:102AA8000024F40000127A00F7B504000D00002895
:102AB80001D10120FEBD07274A4E33683B408B42B7
:102AC8002AD3226893073BD4D20748D40727336810
:102AD8003B40AB420AD93368BB432B433360FEF714
:102AE800CBFC019033683B40AB426BD123683E4D31
:102AF8005B076FD4FFF794FFAB683C491B051B0FBE
:102B08009B005B581F210B40D840394A394B106055
:102B18001868FEF769FCCDE73368BB430B433360A5
:102B2800FEF7AAFC019033683B40AB42C9D0FEF7E0
:102B3800A3FC019BC01A304B9842F4D90320B9E793
:102B48002949530704D5E0238868DB0103438B60D8
:102B58008B682A480340A06803438B60B4E7626827
:102B6800214F012A19D13B689B03A2D50721BB68D5
:102B78008B431343BB60FEF77FFC01903823BA6890
:102B88001A406368DB009A42A0D0FEF775FC019BEF
:102B9800C01A194B9842F1D9D0E7022A03D13B68F1
:102BA8009B01E3D485E7002A03D13B685B05DDD4AC
:102BB8007FE70223032A03D1396E1942D6D178E779
:102BC800F96DFAE7FEF758FC019BC01A0A4B9842C8
:102BD80088D9B3E7AB680A4A1340E2681343AB608D
:102BE80088E7C0460020024000100240484700081D
:102BF800040000200C00002088130000FFF0FFFFF5
:102C0800FF8FFFFF064B07499B68074A5B045B0F72
:102C18009B005B581F2110680B40D8407047C04686
:102C2800001002402847000804000020F0B503689F
:102C3800050085B000209B0351D58022484C5205E1
:102C4800E36B0090134208D1E36B1343E363E36B38
:102C580013400393039B012300938027414E7F0079
:102C680033683B433360FEF707FC019033683B420F
:102C780027D0E16DC022080092006B691040114214
:102C880017D098420CD0E36D374AE16D134080228B
:102C980052020A43E265E26D34490A40E265E3659F
:102CA800DB0706D5FEF7E8FB02270600E36D3B428B
:102CB8004ED0E36D2C4A002013406A691343E36544
:102CC80006E0FEF7D9FB019BC01A0228CED90320E3
:102CD800009B012B03D1E36B254A1340E3632A6869
:102CE800D30706D503241E494B6DA3436C682343C1
:102CF8004B65930606D51A491E4C4B6D2340AC68AC
:102D080023434B6553040FD515492C694B6D9B0024
:102D18009B0823434B658023DB059C4204D1802319
:102D2800CC685B022343CB6012050FD50C4A124CCA
:102D3800536DE96823400B4353658023DB019942B7
:102D480004D18023D1685B020B43D36005B0F0BD8A
:102D5800FEF792FB094B801B9842A7D9B7E7C046FC
:102D68000010024000700040FFFCFFFFFFFFFEFF65
:102D7800FFFFFFEFFFCFFFFFFF3FFFFF88130000BC
:102D880070B50124036A026AA24302624468164AC3
:102D9800856915400A681543022293438A681343DC
:102DA800124A904205D0124EB04202D0114EB042A3
:102DB80013D10826B343CE6833430426B343904265
:102DC80005D00B4A904202D00A4A904205D10A4ADD
:102DD8008E6922404C69344314434A6844608561D3
:102DE8004263036270BDC0468CFFFEFF002C0140A9
:102DF8000044014000480140FFFCFFFF70B5174A3E
:102E0800056A036A134003624268154BC4691C4093
:102E18000B681C43134B1D408B681B022B43124D40
:102E2800A8420ED1114D1D40CB681B022B43104DFB
:102E38002B40104D4E6915408A69324312012A43CE
:102E480005E00D4DA842F4D00C4DA842F1D04260E7
:102E58004A68C461C263036270BDC046FFFEFFFFDB
:102E68008CFFFEFFFFFDFFFF002C0140FFF7FFFF77
:102E7800FFFBFFFFFFCFFFFF004401400048014078
:102E880030B5124A046A036A114D1340036243685D
:102E9800C2692A400D682D0215430E4A14408A68FB
:102EA800120322430C4CA04205D00C4CA04202D085
:102EB8000B4CA04204D10B4C1C404B699B01234393
:102EC80043604B68C5610364026230BDFFEFFFFFDA
:102ED800FF8CFFFEFFDFFFFF002C01400044014094
:102EE80000480140FFBFFFFF70B5066A104C036A37
:102EF800104A234003624368456D15400A6815432C
:102F08000D4A16408A68120432430C4EB04205D06E
:102F18000B4EB04202D00B4EB04203D11C404B695D
:102F28001B02234343604B6845658365026270BD9D
:102F3800FFFFFEFF8FFFFEFFFFFFFDFF002C01409C
:102F4800004401400048014030B5124A046A036A4F
:102F5800114D134003624368426D2A400D682D02EB
:102F680015430E4A14408A68120522430C4CA042AD
:102F780005D00C4CA04202D00B4CA04204D10B4C03
:102F88001C404B699B02234343604B684565C365FE
:102F9800026230BDFFFFEFFFFF8FFFFEFFFFDFFF85
:102FA800002C01400044014000480140FFFFFBFFA6
:102FB80001000300012010B53D310C78E2B28442D3
:102FC80018D1001808701B68D9681143D9600B49DB
:102FD8008B4202D00A498B420DD19A6809490A40AE
:102FE800062A06D007398A4203D0012219680A4303
:102FF8001A60002010BD1968F9E7C046002C01408E
:1030080000040040070001000121036810B5DA68D8
:103018008A43DA601C6A074A144206D11C6A064AC7
:10302800144202D11A688A431A6001233D300370A2
:10303800002010BD111100004404000070477047C3
:1030480070477047704700000222036870B5DD685A
:103058001E69040016420DD015420BD0053A1A61BC
:10306800043202779B699B0700D17CE0FFF7E8FFF9
:103078000023237704231E4212D01D4210D00522BC
:10308800236852421A61073222779A69C0239B004B
:1030980020001A4200D16CE0FFF7D2FF002323770B
:1030A80008231E420FD01D420DD009222368524228
:1030B8001A610D322277DB6920009B075FD0FFF78A
:1030C800BFFF0023237710231E4211D01D420FD0CB
:1030D8001122236852421A6119322277DA69C02311
:1030E8009B0020001A4250D0FFF7AAFF0023237745
:1030F80001231E4208D01D4206D0022223685242F4
:1031080020001A61FDF77EFB82239B011E4207D037
:103118002B0605D52368204A20001A6100F037FCE9
:10312800F30507D52B0605D523681C4A20001A612C
:1031380000F02EFC40231E4208D01D4206D041223A
:103148002368524220001A61FFF77CFF20231E42A9
:1031580008D01D4206D021222368524220001A615D
:1031680000F014FC70BDFFF76AFF2000FFF769FF4D
:103178007EE7FFF764FF2000FFF763FF8EE7FFF7A6
:103188005EFF2000FFF75DFF9BE7FFF758FF200079
:10319800FFF757FFAAE7C0467FDFFFFFFFFEFFFFED
:1031A8001C4A10B50368904202D01B4CA04208D1BB
:1031B8007024A3434C68234390420BD0164CA04282
:1031C80008D0164CA04205D0154CA04202D0154C90
:1031D800A04203D1144C1C40CB6823438024A34352
:1031E8004C69234303608B68C3620B688362904217
:1031F80005D00B4B984202D00A4B984201D10B697B
:103208000363012242610369134202D003699343B5
:10321800036110BD002C0140000400400020004064
:103228000044014000480140FFFCFFFF70B5040066
:103238000120002C23D025003D352B78DAB2002B55
:1032480005D123003C3320001A70FDF75BFF0223F1
:103258002B702068211DFFF7A3FF22000123002007
:103268004832137047340A3A137053709370D3700E
:10327800137153719371D371137223702B7070BDD6
:1032880070B504000120002C23D025003D352B7893
:10329800DAB2002B05D123003C3320001A70FFF767
:1032A800CDFE02232B702068211DFFF779FF220035
:1032B800012300204832137047340A3A13705370C0
:1032C8009370D370137153719371D3711372237008
:1032D8002B7070BD102270B5056A036A164C9343B3
:1032E80003624268836923400C6824021C4320233C
:1032F8009D438B681B012B43104DA8420FD180259D
:10330800AB431E00CB68403D1B013343AB430C4D20
:103318004E6915408A69324392002A4305E0094DF7
:10332800A842F4D0084DA842F1D042604A688461AE
:103338008263036270BDC046FF8CFFFE002C014013
:10334800FFF3FFFF0044014000480140F8B50700C3
:103358003C3715003A7803000C000220012A0CD0F3
:10336800013838700C2D51D008D8042D2DD0082DD7
:103378003CD0002D17D000233B70F8BD102D58D03D
:10338800142DF8D11D682800FFF7DEFD80236A6D33
:103398001B0113436B656B6D2E4A13406B652369E4
:1033A8006A6D1B0253E01D682800FFF7E9FC08233B
:1033B800AA6913430422AB61AB699343AB61AB6960
:1033C80022691343AB610020D5E71D682800FFF789
:1033D80081FF8023AA691B011343AB61AB691D4AB6
:1033E8001340AB612369AA691B02EAE71E68300033
:1033F800FFF704FD0422F3691D43F561F369934364
:10340800F361F36922691343F361DCE71D6828005F
:10341800FFF736FD8023EA691B011343EB61EB6973
:103428000C4A1340EB612369EA691B021343EB6101
:10343800C9E71D682800FFF757FD08236A6D134385
:1034480004226B656B6D93436B656B6D2269134347
:103458006B65B8E7FFFBFFFF30B58468034D0A438F
:103468001B022C4013432343836030BDFF00FFFF42
:10347800F8B5050002223C352C7803001000012C19
:103488001BD01E0001383D36287032701C68414A36
:10349800A3681340A3600B68602B4ED02DD8402B37
:1034A80062D013D8202B0BD008D8102219009143D2
:1034B80006D00123337000232B70F8BD302BF8D1D0
:1034C800A26835490A401343072228E0502BF0D15F
:1034D8004A68CB68216A276A1B0187432762F0275D
:1034E800A069B84303430A2081430A43A3612262C7
:1034F800294BA2681A40572311E0802252019342B7
:103508000FD08022920193420DD0702BD1D1CB687D
:103518004A6820008968FFF79FFF7723A268134352
:10352800A3600020C5E7CB684A6820008968FFF7D8
:1035380093FF8023A268DB01F1E710274B68CA6874
:10354800216A206A1203B8432062A069134F1B0145
:1035580038400243A02081430B43A2612362A26842
:103568000D4B1A406723DAE74A68CB68216A276A55
:103578001B0187432762F027A069B84303430A2049
:1035880081430A43A3612262034BA2681A4047237E
:10359800C5E7C0468800CEFF8FFFCFFFFF0FFFFFB4
:1035A8000068304B826870B51A404B682E4C1A433D
:1035B80022400C6822438260502B2DD010D8402B1B
:1035C80019D00122402B09D8202B03D004D8102170
:1035D8008B4303D1002201E0302BFBD0100070BDDB
:1035E800602B2BD00122702BF8D10B698A68C9682F
:1035F800FFF732FFEEE701252A00052CEED0046A1A
:10360800036AAB430362F02382699A430B691B0187
:10361800134383610462DDE701258A680B69016A47
:10362800046A1B01AC4304628469EF35AC4323434D
:103638000A24A1430A4383610262CBE710258B6801
:103648000A69016A046A1203AC4304628469074D7B
:103658001B012C402243A024A1430B438261036237
:10366800B8E7C0468FFFCFFFF8FFFEFFFF0FFFFF51
:10367800F8B5050002233C352A7804001800012A11
:103688000DD0270001263D372E7020003B70FFF734
:1036980087FF002804D0002330003E702B70F8BD4F
:1036A80040212368DA688A43DA60DA6802490A4006
:1036B800DA603E702870F2E7FFBFFFFF1F2310B5E6
:1036C800012419408C408A40036AA3430362036AB9
:1036D8001A43026210BD0000020010B508291CD070
:1036E80006D800290BD0042914D01300433308E06E
:1036F8000C2915D01029F8D10300423301E003004A
:103708003E331B78013B581E8341DBB20120002B5E
:1037180009D010BD03003F33F3E703004033F0E75F
:1037280003004133EDE70223082933D006D80029E6
:103738000BD004292BD01000433008E00C292CD0E2
:103748001029F8D11000423001E010003E3003701B
:10375800146801222000FFF7B1FF154A94421FD0D8
:10376800144B9C421CD0144B9C4219D0134B9C42C6
:1037780007D1A368124A1340062B06D0073A934292
:1037880003D001232268134323600020C1E71000FF
:103798003F30DCE710004030D9E710004130D6E771
:1037A8008023616C1B020B4363649442E1D0DDE724
:1037B800002C014000440140004801400004004042
:1037C8000700010010B5FFF787FF10BD70B5056849
:1037D8000022040028000E00FFF770FF1C4B1D4A52
:1037E8009D4205D01C4B9D4202D01C4B9D420AD1E4
:1037F8002B6A134207D1296A194B194203D16B6C02
:1038080018490B406B642B6A134207D12A6A144B80
:103818001A4203D101222B6893432B600123002E07
:1038280003D13E340020237070BD0C2E0ED005D875
:10383800042E07D0082E07D04334F3E7102EFBD10F
:103848004234EFE73F34EDE74034EBE74134E9E752
:10385800002C0140111100000044014000480140C3
:1038680044040000FF7FFFFF10B5FFF7AFFF10BD56
:10387800F0B5040002223C34257803001000012D25
:103888001FD01D003D352A701A680E4E5368906887
:10389800B24203D10C4F3B404F683B437027BB43B8
:1038A8000F683B435360B24202D0084B9A4204D19E
:1038B800802398438B6818439060012300202B7065
:1038C8002070F0BD002C0140FFFF0FFF00040040F6
:1038D80010B504003C34237802000220012B39D0B3
:1038E8001D48CB680340886803431C480340486868
:1038F80003431B480340086803431A480340086908
:103908000343194803404869034318480340086BB8
:1039180003431748034088690004034315480340DC
:10392800C86903431068144A904210D1134A1340DF
:103938008A6A12051A43124B1A400B6A1A43114B32
:103948001A404B6A1A43104B1A40CB6A134343641C
:103958000020207010BDC046FFFCFFFFFFFBFFFFEB
:10396800FFF7FFFFFFEFFFFFFFDFFFFFFFBFFFFFD7
:10397800FFFFF0FFFFFFFFEF002C0140FFFF0FFFED
:10398800FFFFFFFEFFFFFFFDFFFFFFDF70477047F0
:103998007047000030B5EFF31084012282F31088DD
:1039A800C02501680B68AB430B6084F31088EFF304
:1039B800108182F310880268044C93682340936056
:1039C80081F3108820238830036030BDFFFF7FFF1C
:1039D80030B5EFF31084012282F310880168134D8B
:1039E8000B682B400B6084F31088EFF3108182F38F
:1039F800108802680E4C93682340936081F3108806
:103A0800C36E012B0AD1EFF3108183F310881024C1
:103A180002681368A343136081F31088030020220F
:103A28008C331A600023C366436730BDDFFEFFFF97
:103A3800FEFFFFEF70B505000120002D19D02E0004
:103A480024230024883633602B681A6882431A605E
:103A580028001C605C609C60FDF74EFC2B00200079
:103A680090331C60043B34601C60EC662C67843522
:103A78002C7070BDF7B50500883513002A6804005E
:103A88000220202A04D1002901D0002B01D10120D5
:103A9800FEBD8022A0685201904204D12269002A0A
:103AA80001D1CA07F3D42200260054322165002729
:103AB80013805380212290363760E06F2A60226895
:103AC8000192B84211D0114A8763C262104A026358
:103AD800104A4263019A2832FEF776FAB84204D0B7
:103AE80010233360DB182B60D1E7402223681A6269
:103AF800EFF31081012383F3108822687F339068E5
:103B08000343936081F310880020C1E7C73B000896
:103B1800193C0008293C00080300020080218C326F
:103B2800883370B51B6815680268040092680A42F9
:103B380020D0212B1ED1EFF31080203B83F3108877
:103B4800226893688B43936080F31088E06F0028A5
:103B58000DD0FEF781FA002809D0E06FFEF744FB8C
:103B6800202804D110239034032023600AE0200089
:103B7800FFF710FF402123689B680B4201D0222DDC
:103B880001D0002070BDEFF31080012383F310886B
:103B9800250004CD93688B43936080F31088E86F09
:103BA800002808D0FEF758FA002804D0E86FFEF77E
:103BB8001BFB2028D6D02000FFF70AFFE1E703000F
:103BC8001B6870B51A6820231100806A19401A42D0
:103BD8001AD1030056331980EFF31084012282F3BF
:103BE8001088802501688B68AB438B6084F310884C
:103BF800EFF3108182F310884023026810680343B2
:103C0800136081F3108870BDFCF792FDFBE77047E5
:103C180010B5806AFFF7FBFF10BD7047704770470B
:103C280070B5846A230088331A685D6823689B68C6
:103C38001B0608D5212A06D123000022563320006E
:103C48001A80FFF7A7FE23689B685B0608D5222D1C
:103C580006D1230000225E3320001A80FFF7B8FE49
:103C6800220010239032116820000B431360FFF7E5
:103C7800D6FF70BD806A0023020010B55E32138043
:103C8800083A1380FFF7CBFF10BD0000F7B50168B5
:103C9800C14DCB6904000A6888682B4210D12025E1
:103CA8002B4200D19BE0802676051540064035431F
:103CB80000D194E0636F2000002B00D085E085E000
:103CC800B64D05400095B64D009E1540354300D1D0
:103CD80085E0250001269035334205D0D70503D568
:103CE8000E622F683E432E60022633420CD0C7076F
:103CF8000AD527000E6290373E680197B44604261D
:103D080067463E43019F3E60042633420CD0C707F6
:103D18000AD527000E6290373E680197B4460226FE
:103D280067463E43019F3E600826B446334209D0A9
:103D38002027009E1740374304D066460E622F683E
:103D48003E432E6080263601334206D0570104D503
:103D58000E6220212E68314329602968002935D058
:103D680020210B420AD080235B05114003401943F0
:103D780004D0636F002B01D02000984722682B687D
:103D88004027966828223E40134020001E4322D038
:103D9800FFF71EFE23689B683B4218D0EFF31081A3
:103DA800012383F31088250004CD9368BB439360F7
:103DB80081F31088E86F002809D07A4B8363FEF7F7
:103DC80085F9002802D0E86F836B9847F7BD20007B
:103DD800FFF725FFFAE7FFF722FF2E60F6E7E56E0B
:103DE800012D00D09FE01026334200D19BE03242E3
:103DF80000D198E00E62896840230A001A401942EF
:103E080057D0211DCA6F1068426892B2002ADDD0CF
:103E180027005C373F889742D8D927005E373A8019
:103E2800026820208446104000906046024232D149
:103E3800EFF3108785F3108820685B4E02683240E4
:103E4800026087F31088EFF3108785F310882068E5
:103E58008268AA43826087F31088EFF3108785F39E
:103E68001088206882689A43826087F3108823004C
:103E780062468C331A60009BE366EFF3108085F38B
:103E8800108822680F351368AB43136080F31088DD
:103E9800C86FFEF7E1F802232200236723005C3293
:103EA8005E331B881188C91A89B22000FCF774FC9C
:103EB8008CE7230020005C335E3019880388008873
:103EC8009BB2002800D181E7C91A89B2002900D124
:103ED8007CE7EFF3108785F310882068334E03687A
:103EE8003340036087F31088EFF3108785F3108859
:103EF80020682F4E83683340836087F3108823003F
:103F080020208C331860E2666267EFF3108085F337
:103F18001088102522681368AB43136080F310885B
:103F280002232367C1E780256D032B4206D0460292
:103F380004D520000D6200F025FB47E780210B42E5
:103F480007D080252D0411402840014301D0A36FDC
:103F5800B1E640210B4216D00A4214D0EFF310808C
:103F6800012383F31088226813688B43136080F35E
:103F780010882300202288331A6000232000A367BA
:103F8800FCF7D6FB22E7190214D5510012D5200000
:103F980000F0FAFA1AE7C0460F0800000100001006
:103FA800200100047D3C0008FFFEFFFFDFFEFFFF4D
:103FB800FEFFFFEFDB0100D408E7002A00DB05E77E
:103FC800200000F0E0FA01E70123806A10B50367DA
:103FD800C36E012B06D103005C3319884908FCF72E
:103FE800DBFB10BDFFF71AFEFBE7000003001B68B0
:103FF80020221B6870B51900806A1140134234D121
:1040080003005E331980EFF31085012383F31088D2
:1040180004681D4E21683140216085F31088EFF354
:10402800108583F310880468A1689943A16085F31B
:104038001088EFF3108483F31088402501688B689B
:10404800AB438B6084F3108803008C331A60C36E13
:10405800012B0AD1EFF3108183F310881024026832
:104068001368A343136081F3108800230367C36EAA
:10407800012B05D103005C331988FCF78DFB70BD5B
:10408800FFF7CBFDFBE7C046FFFEFFFF70B504005E
:104098002569A168036829436569C26929431868C5
:1040A800494D114328400143196059684748256A1A
:1040B8000140E06801435960A16998682943444D6B
:1040C800284001430F209960D96A8143606A0143FF
:1040D800D96240498B4215D103213F4B5B6D0B40A0
:1040E800013B022B60D83D49C85C80231B029A42E1
:1040F8002FD1082856D8FBF7FFFF5B550E550B55F7
:1041080055550F0036495B18591E8B411801ECE7CD
:10411800FEF786FC4EE0334A616A334B49001000D3
:10412800C95AFBF7F3FF656840006B08C0182900FF
:10413800FBF7ECFF02002D4B103A9A4232D80F23BE
:10414800020000079A4393B2400F22680343D360EA
:1041580032E0082826D8FBF7CFFF1A2505251F25AA
:10416800252522001F48626A1F4B5200D15AFBF7CF
:10417800CDFF65686B08C0182900FBF7C7FF020070
:104188001A4B103A9A420DD82368D86014E0FEF70B
:1041980039FD002810D0E6E7FEF742FCF9E7802059
:1041A8000002E0E7012008E080231B029A42EED1DA
:1041B800FEF728FD021EAFD100200D4BA366002399
:1041C8006367A36770BDC046F369FFCFFFCFFFFFEA
:1041D800FFF4FF1100380140001002408847000832
:1041E80000BCFFBF0024F4008C470008EFFF00006C
:1041F80001000100836A30B51A0706D50168284C0A
:104208004A682240846B22434A60DA0706D501686F
:10421800244C4A682240C46A22434A609A0706D559
:104228000168214C4A682240046B22434A605A07BD
:1042380006D501681D4C4A682240446B22434A60F7
:10424800DA0606D501681A4C8A682240C46B2243F4
:104258008A609A0606D50168164C8A682240046C62
:1042680022438A605A0610D50168134D4A68446C87
:104278002A4022434A6080225203944205D14A6868
:104288000E4C2240846C22434A601B0606D5026805
:104298000B4953680B40C16C0B43536030BDC0469B
:1042A800FF7FFFFFFFFFFDFFFFFFFEFFFFFFFBFF9D
:1042B800FFEFFFFFFFDFFFFFFFFFEFFFFFFF9FFFA6
:1042C800FFFFF7FFF7B504000D0017000093226801
:1042D800D3692B405B1B59424B41BB4201D00020A4
:1042E80026E0089B0133F3D0FDF7C6F8009BC01AFF
:1042F800089B98422DD8002B2BD023681A685207A8
:10430800E5D52A004021403A8A43E0D0DA690826F8
:1043180011003140019132420BD020001E62FFF79C
:1043280057FB230090331E60002301208434237040
:10433800FEBD8022D96912011142C8D01A6220003C
:10434800FFF746FB2300202290331A60019B843438
:1043580023700320ECE70000030073B50026040077
:1043680090331E60FDF788F8236805001B681B075B
:104378001FD58021284B32000093890303002000B9
:10438800FFF7A0FFB04214D0EFF31081012383F3AD
:1043980010888020226813688343136081F3108893
:1043A8002300202288331A600320002384342370DA
:1043B80076BD260023688C361B685B0723D58021D1
:1043C800154B0022009320002B00C903FFF77AFF4A
:1043D800002818D0EFF31080012282F3108821689A
:1043E8000E4D0B682B400B6080F31088EFF31080A4
:1043F80082F3108821688B6893438B6080F3108860
:1044080020233360D0E723002022002088331A605D
:104418003260E0662067C8E7FFFFFF01DFFEFFFFAD
:1044280070B5041E01D1012070BD050088352B68C8
:10443800002B04D1020084321370FCF7DBFE242326
:10444800012122682B6013688B431360A36A002B39
:1044580002D02000FFF7CEFE2000FFF717FE01284C
:10446800E1D0236807495A6820000A402A215A6087
:104478009A688A439A60012219680A431A60FFF70A
:104488006BFFD1E7FFB7FFFFF8B513000200060086
:1044980005005C3281650F001380222100229036CE
:1044A8008C3532602960011D0400C86F904213D01A
:1044B8001D498263C1621D493A0001631C49416379
:1044C80021682431FDF780FD002805D01023012044
:1044D8003360DB182B60F8BD2369002B0BD0EFF39A
:1044E8001081012383F310882268FF331068034387
:1044F800136081F31088EFF31080012383F3108891
:1045080021688A681A438A6080F31088EFF3108163
:1045180083F3108822683F3390680343936081F3E4
:1045280010880020D7E7C046F53F0008D13F0008B3
:10453800293C0008F7B50700436E04006A37002BD2
:1045480004D10120388068342080F7BD03680B4E01
:104558009A689B680A4D5B0FF05CE95CC0000192A9
:10456800FBF75EFE019B38801B015B0FF05CE95C8A
:10457800C000FBF755FE80B2E5E7C046AC4700082F
:10458800A4470008704770477047000070B50400E2
:104598008434227803000220012A11D01D0024222D
:1045A800012688352A601A6811681068B0431060BF
:1045B8000448014000205866202311602B602070B9
:1045C80070BDC046FFFFFFDFF8B5050084350B005E
:1045D80029780222012915D00600012104688836AD
:1045E80022323260276822688A432260A168C900A3
:1045F800C9081943A160FFF79DFF20230022276007
:1046080033602A701000F8BDF8B5050084350A003B
:1046180029780223012915D006000121046888366B
:1046280022333360276823688B432360A168064BD5
:1046380019401143A160FFF77DFF202327603360F5
:1046480000232B701800F8BDFFFFFFF103008C3327
:104658001B6870B504000220202B02D1002901D16B
:10466800012070BD002AFBD08020A56801234001ED
:10467800854204D12069002801D11942F0D1E366AE
:10468800002320002367FFF7FFFE0028E9D1E26E30
:10469800012AE5D1102321680B62EFF3108182F320
:1046A8001088226814682343136081F31088D8E7C0
:1046B80003008218934200D1704719700133F9E75B
:1046C80070B500260C4C0D4D641BA410A64209D1F0
:1046D800002600F019F80A4C0A4D641BA410A642E3
:1046E80005D170BDB300EB5898470136EEE7B3002B
:1046F800EB5898470136F2E7B4470008B44700087A
:10470800B8470008B4470008F8B5C046F8BC08BC6C
:104718009E467047F8B5C046F8BC08BC9E46704730
:104728000000000000000000000000000000000081
:104738000100000002000000030000000400000067
:104748000000000000000000000000000000000061
:104758000000000000000000000000000000000051
:104768000100000002000000030000000400000037
:104778000600000007000000080000000900000013
:1047880004020800010002000400060008000A00F4
:104798000C00100020004000800000010804020402
:0C47A800080101010101010307010000EC
:0447B400E100000818
:0447B800B90000083C
:1047BC00020000000024F4000100000004000000CE
:040000050800139D3F
:00000001FF
